:100000000C9409010C942A010C942A010C942A01E5
:100010000C942A010C942A010C942A010C942A01B4
:100020000C942A010C942A010C942A010C942A01A4
:100030000C942A010C942A010C946D080C942A014A
:100040000C942A010C942A010C942A010C942A0184
:100050000C942A010C942A010C942A010C942A0174
:100060000C942A010C942A010C942A010C942A0164
:100070000C942A010C942A010C942A010C942A0154
:100080000C942A010C942A010C942A010C942A0144
:100090000C942A010C942A010C942A010C942A0134
:1000A0000C942A010C942A010C942A010C942A0124
:1000B0000C942A010C942A010C942A010C942A0114
:1000C0000C942A010C942A010C942A010C942A0104
:1000D0000C942A010C942A010C942A010C942A01F4
:1000E0000C942A010C942A010C942A010C942A01E4
:1000F0000C942A010C942A010C942A010C942A01D4
:100100000C942A010C942A010C942A010C942A01C3
:100110000C942A010C942A010C942A010C942A01B3
:100120000C942A010C942A010C942A010C942A01A3
:100130000C942A010C942A010C942A010C942A0193
:100140000C942A010C942A010C942A010C942A0183
:100150000C942A010C942A010C942A010C942A0173
:100160000C942A010C942A010C942A010C942A0163
:100170000C942A010C942A010C942A010C942A0153
:100180000C942A010C942A010C942A010C942A0143
:100190000C942A010C942A010C942A010C942A0133
:1001A0000C942A010C942A010C942A010C942A0123
:1001B0000C942A010C942A010C942A010C942A0113
:1001C0000C942A010C942A010C942A010C942A0103
:1001D0000C942A010C942A010C942A010C942A01F3
:1001E0000C942A010C942A01BF08D308EE080209D6
:1001F00016092F094809630977098B099F09B30973
:10020000CC09E709080A230A3E0A5D0A7C0A9D0A0E
:10021000BE0A11241FBECFEFDFE3DEBFCDBF00E07B
:100220000CBF1EE4A0E0B0E2E2E1FAE200E00BBFA6
:1002300002C007900D92A436B107D9F71FE4A4E6D7
:10024000BEE401C01D92A93CB107E1F70E9445132D
:100250000C9407150C940000EF92FF920F931F93DC
:100260007B018C0120E030E040E05FE40E94D80494
:1002700088238CF0C801B70120E030E040E05FE463
:100280000E94A4020E9496059B01AC0120503040C0
:100290004040504806C0C801B7010E9496059B0126
:1002A000AC01B901CA011F910F91FF90EF90089521
:1002B000A0E0B0E0EEE5F1E00C949D14DC012B0130
:1002C000FA019C91923008F439C1EB0188818230A7
:1002D00008F433C1943069F4843009F02FC11196C9
:1002E0009C9111978981981709F428C1A0E0B0E288
:1002F00025C1843009F421C18230A9F4923009F07B
:100300001DC19A01AD0188E0EA010990AE01E90141
:1003100009929E018150C1F7E201898111969C9159
:100320008923818308C1923009F407C112962D9068
:100330003C901397EB018A819B811496AD90BD9000
:10034000CD90DC901797EC80FD800E811F8191018C
:10035000281B390BB90137FF04C066277727621BBA
:10036000730B603271050CF061C0121613066CF548
:1003700037014801062E04C09694879477946794B9
:100380000A94D2F721E030E040E050E004C0220FB0
:10039000331F441F551F6A95D2F72150304040400B
:1003A00050402E213F214023512321153105410585
:1003B000510521F021E030E040E050E079018A0170
:1003C000E628F728082919293CC0232BD1F1260E4D
:1003D000371E35014601062E04C096948794779403
:1003E00067940A94D2F721E030E040E050E004C086
:1003F000220F331F441F551F6A95D2F721503040FA
:10040000404050402A213B214C215D2121153105DE
:100410004105510521F021E030E040E050E0590174
:100420006A01A628B728C828D9280BC082159305C9
:100430002CF01C01AA24BB24650103C0EE24FF2478
:10044000870111969C91D20111968C91981709F40D
:1004500045C0992339F0A80197012A193B094C0995
:100460005D0906C0A60195012E193F09400B510BED
:1004700057FD08C01182228233822483358346834C
:1004800057831DC081E08183228233828827992788
:10049000DC01821B930BA40BB50B84839583A6838D
:1004A000B7830DC0220F331F441F551F248335838C
:1004B000468357838281938101978283938324812A
:1004C000358146815781DA01C9010197A109B10936
:1004D0008F5F9F4FAF4FBF4328F30BC091832282A2
:1004E0003382EA0CFB1C0C1D1D1DE482F582068381
:1004F000178383E08083248135814681578157FFAC
:100500001AC0C901AA2797FDA095BA2F81709070D3
:10051000A070B0705695479537952795822B932BF1
:10052000A42BB52B84839583A683B7838281938183
:10053000019682839383DF0101C0D201CD01CDB743
:10054000DEB7E2E10C94B914A0E2B0E0EAEAF2E02E
:100550000C94A91469837A838B839C832D833E83B7
:100560004F835887E9E0EE2EF12CEC0EFD1ECE01F4
:100570000196B7010E940E078E010F5E1F4FCE013C
:100580000596B8010E940E078A8991E089278A8B17
:10059000C701B801AE01475E5F4F0E9458010E943B
:1005A0003906A096E6E00C94C514A0E2B0E0EBEDAD
:1005B000F2E00C94A91469837A838B839C832D8346
:1005C0003E834F835887F9E0EF2EF12CEC0EFD1E91
:1005D000CE010196B7010E940E078E010F5E1F4FDC
:1005E000CE010596B8010E940E07C701B801AE0101
:1005F000475E5F4F0E9458010E943906A096E6E0D0
:100600000C94C514A0E2B0E0E8E0F3E00C949D1473
:1006100069837A838B839C832D833E834F835887A2
:10062000CE010196BE01675F7F4F0E940E07CE018B
:100630000596BE016F5E7F4F0E940E07998592302E
:1006400088F089898230C8F0943019F4823051F4EE
:1006500004C0843029F4923081F480E090E2C6C076
:10066000923049F420E09A858A89981321E02A87FC
:10067000CE010996BBC0823049F420E09A858A8970
:10068000981321E02A8BCE014196B0C02D843E8480
:100690004F8458886D887E888F88988CEE24FF243C
:1006A0008701AA24BB24650140E050E060E070E0CF
:1006B000E0E0F0E0C10181709070892BE9F0E60C78
:1006C000F71C081D191D9A01AB012A0D3B1D4C1D7D
:1006D0005D1D80E090E0A0E0B0E0E614F7040805BE
:1006E000190520F481E090E0A0E0B0E0BA01A90192
:1006F000480F591F6A1F7B1FAA0CBB1CCC1CDD1C9A
:1007000097FE08C081E090E0A0E0B0E0A82AB92AF6
:10071000CA2ADB2A3196E032F10549F0660C771CD3
:10072000881C991C5694479437942794C3CFFA8514
:10073000EA892B893C898B859C85280F391F2E5F80
:100740003F4F17C0CA0181709070892B61F01695D8
:100750000795F794E79480E090E0A0E0B0E8E82AFD
:10076000F92A0A2B1B2B76956795579547952F5F8E
:100770003F4F77FDE7CF0CC0440F551F661F771F13
:1007800017FD4160EE0CFF1C001F111F215030406F
:10079000403090E0590790E0690790E4790760F3F2
:1007A0002B8F3C8FDB01CA018F779070A070B070E7
:1007B00080349105A105B10561F447FD0AC0E1143B
:1007C000F1040105110529F0405C5F4F6F4F7F4F29
:1007D00040781A8EFE1711F081E08A8F4D8F5E8F60
:1007E0006F8F78A383E0898FCE0149960E943906E6
:1007F000A096E2E10C94B914A8E1B0E0E2E0F4E0E4
:100800000C94A51469837A838B839C832D833E8308
:100810004F835887B9E0EB2EF12CEC0EFD1ECE0174
:100820000196B7010E940E078E010F5E1F4FCE0189
:100830000596B8010E940E072985223008F47EC073
:100840003989323010F4B8017CC08A859A898927A9
:100850008A87243011F0223031F4231709F06EC05A
:1008600060E070E26EC0343039F41D861E861F864B
:10087000188A1B861C8604C0323021F484E08987E4
:10088000B7015FC02B853C858B899C89281B390B60
:100890002B873C87ED84FE840F851889AD88BE8840
:1008A000CF88D88CEA14FB040C051D0540F4EE0C2F
:1008B000FF1C001F111F215030402B873C8720E078
:1008C00030E040E050E080E090E0A0E0B0E460E0A4
:1008D00070E0EA14FB040C051D0540F0282B392BB1
:1008E0004A2B5B2BEA18FB080C091D09B695A79546
:1008F00097958795EE0CFF1C001F111F6F5F7F4FB0
:100900006F31710531F7DA01C9018F779070A070EE
:10091000B07080349105A105B10561F427FD0AC0CE
:10092000E114F1040105110529F0205C3F4F4F4F00
:100930005F4F20782D873E874F87588BBE01675FBA
:100940007F4FCB010E9439066896EAE00C94C114EF
:10095000A8E1B0E0EEEAF4E00C94A91469837A838C
:100960008B839C832D833E834F83588789E0E82EB9
:10097000F12CEC0EFD1ECE010196B7010E940E0770
:100980008E010F5E1F4FCE010596B8010E940E0723
:100990008985823040F08989823028F0C701B8010A
:1009A0000E94860701C08FEF6896E6E00C94C5149C
:1009B000A8E1B0E0EEEDF4E00C94A91469837A8329
:1009C0008B839C832D833E834F83588789E0E82E59
:1009D000F12CEC0EFD1ECE010196B7010E940E0710
:1009E0008E010F5E1F4FCE010596B8010E940E07C3
:1009F0008985823040F08989823028F0C701B801AA
:100A00000E94860701C08FEF6896E6E00C94C5143B
:100A1000A8E1B0E0EEE0F5E00C94A91469837A83D4
:100A20008B839C832D833E834F83588789E0E82EF8
:100A3000F12CEC0EFD1ECE010196B7010E940E07AF
:100A40008E010F5E1F4FCE010596B8010E940E0762
:100A50008985823040F08989823028F0C701B80149
:100A60000E94860701C081E06896E6E00C94C514F8
:100A7000A8E0B0E0EEE3F5E00C94A6149B01AC0115
:100A800083E08983DA01C9018827B7FD8395992717
:100A9000AA27BB27B82E211531054105510519F4A8
:100AA00082E089833AC08823A9F0203080E03807AB
:100AB00080E0480780E8580729F460E070E080E0B3
:100AC0009FEC30C0EE24FF248701E21AF30A040BE6
:100AD000150B02C079018A018EE1C82ED12CCB8280
:100AE000DC82ED82FE820F831887C801B7010E9465
:100AF000EA0501971816190684F4082E04C0EE0CB6
:100B0000FF1C001F111F0A94D2F7ED82FE820F8393
:100B10001887C81AD90ACB82DC82BA82CE01019624
:100B20000E9439062896E9E00C94C214ACE0B0E0CB
:100B3000ECE9F5E00C94AD1469837A838B839C8394
:100B4000CE010196BE016B5F7F4F0E940E078D8123
:100B5000823061F1823050F1843021F48E8188231B
:100B600051F12EC02F81388537FD20C06E812F3185
:100B700031051CF06623F9F023C08EE190E0821B62
:100B8000930B29853A854B855C8504C0569547951E
:100B9000379527958A95D2F76623B1F05095409501
:100BA000309521953F4F4F4F5F4F0EC020E030E012
:100BB00040E050E009C02FEF3FEF4FEF5FE704C088
:100BC00020E030E040E050E8B901CA012C96E2E0B4
:100BD0000C94C914EF92FF920F931F937B018C0129
:100BE00080E0E81680E0F80681E0080780E018075A
:100BF00088F48FEFE816F1040105110531F028F0B3
:100C000088E090E0A0E0B0E017C080E090E0A0E0D5
:100C1000B0E012C080E0E81680E0F80680E0080747
:100C200081E0180728F088E190E0A0E0B0E004C07F
:100C300080E190E0A0E0B0E020E230E040E050E071
:100C4000281B390B4A0B5B0B04C016950795F794CC
:100C5000E7948A95D2F7F701E85FFF4D8081281B62
:100C6000310941095109C9011F910F91FF90EF907E
:100C70000895DF92EF92FF920F931F93FC01E4809F
:100C8000F58006811781D1808081823048F480E030
:100C900090E0A0E1B0E0E82AF92A0A2B1B2BA5C0BE
:100CA000843009F49FC0823021F4EE24FF248701B0
:100CB00005C0E114F1040105110519F4E0E0F0E0CC
:100CC00096C0628173819FEF623879070CF05BC038
:100CD00022E83FEF261B370B2A3131052CF020E0AC
:100CE00030E040E050E02AC0B801A701022E04C065
:100CF00076956795579547950A94D2F781E090E0ED
:100D0000A0E0B0E004C0880F991FAA1FBB1F2A955E
:100D1000D2F70197A109B1098E219F21A023B12308
:100D20000097A105B10521F081E090E0A0E0B0E0DE
:100D30009A01AB01282B392B4A2B5B2BDA01C90115
:100D40008F779070A070B07080349105A105B105C7
:100D500039F427FF09C0205C3F4F4F4F5F4F04C05D
:100D6000215C3F4F4F4F5F4FE0E0F0E02030A0E0CC
:100D70003A07A0E04A07A0E45A0710F0E1E0F0E0EB
:100D800079018A0127C06038710564F5FB01E158DB
:100D9000FF4FD801C7018F779070A070B07080347A
:100DA0009105A105B10539F4E7FE0DC080E490E09E
:100DB000A0E0B0E004C08FE390E0A0E0B0E0E80E77
:100DC000F91E0A1F1B1F17FF05C016950795F794FC
:100DD000E794319687E016950795F794E7948A95FE
:100DE000D1F705C0EE24FF248701EFEFF0E06E2F6E
:100DF000679566276795902F9F77D794DD24D794C2
:100E00008E2F8695492F462B582F5D29B701CA0191
:100E10001F910F91FF90EF90DF900895FC01DB018F
:100E2000408151812281622F6F7770E0221F22273B
:100E3000221F9381892F880F822B282F30E0991F42
:100E40009927991F11969C93119721153105A9F5A2
:100E5000411551056105710511F482E037C082E842
:100E60009FEF12968D939C9313979A01AB0167E0C5
:100E7000220F331F441F551F6A95D1F783E08C93CF
:100E80000DC0220F331F441F551F12968D919C9148
:100E90001397019712968D939C931397203080E0BF
:100EA000380780E0480780E4580758F314962D93DC
:100EB0003D934D935C93179708952F3F310579F437
:100EC000411551056105710519F484E08C9308956D
:100ED00064FF03C081E08C9312C01C9210C02F5796
:100EE000304012962D933C93139783E08C9387E0C8
:100EF000440F551F661F771F8A95D1F770641496AB
:100F00004D935D936D937C93179708951F93DC0128
:100F1000FB019C91923008F447C08081823008F434
:100F200043C0943051F411961C91843099F581811D
:100F3000682F70E0611B71093FC0843021F092304E
:100F400031F48230B9F18181882389F12DC0119665
:100F50001C9111978230F1F081811817D9F4129603
:100F60002D913C911397828193818217930794F07E
:100F700028173907BCF014968D919D910D90BC9166
:100F8000A02D2481358146815781281739074A07CA
:100F90005B0718F4112341F00AC082179307A407D6
:100FA000B50740F4112319F061E070E005C06FEF60
:100FB0007FEF02C060E070E0CB011F910895BC019B
:100FC00048E050E0E1E0F0E02FEFCF01042E02C056
:100FD000880F991F0A94E2F786239723181619069B
:100FE000DCF4209344062093440620934406209387
:100FF00044062093440620934406209344062093FD
:1010000044062093440620934406209344062093EC
:101010004406209344061AC02093440620934406B5
:1010200020934406209344062093440610924406DD
:101030001092440610924406109244061092440600
:1010400010924406109244061092440610924406F0
:1010500010924406109244061092440610924406E0
:1010600010924406109244061092440610924406D0
:10107000109244061092440610924406415050408B
:1010800009F0A3CF0895EF92FF920F931F938C0165
:10109000CB017A010E94DF07C8010E94DF07C70168
:1010A0000E94DF071F910F91FF90EF90089580E05D
:1010B00090E0FC01EB59F14B10821182FC01E952E6
:1010C000F14B10821182FC01E75BF04B1082118220
:1010D00002968237910569F708951F920F920FB615
:1010E0000F9211240F900FBE0F901F901895CF9361
:1010F000DF93C0E0D0E0DE01AB59B14BFE01E95215
:10110000F14B60817181FE01E75BF04B40815181C1
:101110008D919C910E9443082296C237D10559F7C0
:10112000DF91CF9108958FE080935000E0E4F0E0EC
:10113000118288E1E0E5F0E08583809150008061D4
:10114000809350008091510084FFFCCF88ED84BFD4
:1011500084E0809340000895E82FFF27E7FDF09595
:10116000E531F10508F02AC2EC50FF4F772767FD03
:101170007095EE0FFF1F0590F491E02D199416164F
:10118000170614F061E070E06A33710514F069E34A
:1011900070E0FB013197EE0FFF1FDF01AB59B14B40
:1011A0001D921C9215C01616170614F061E070E02F
:1011B0006A33710514F069E370E0FB013197EE0FBB
:1011C000FF1FDF01AB59B14B8FEF90E08D939C93E4
:1011D000DF01A952B14B1D921C9215C116161706BC
:1011E00014F061E070E06A33710514F069E370E0B7
:1011F000FB013197EE0FFF1FDF01AB59B14B1D9281
:101200001C92FAC01616170614F061E070E06A33FB
:10121000710514F069E370E0FB013197EE0FFF1FD9
:10122000DF01AB59B14B1D921C9222C11616170655
:1012300014F061E070E06A33710514F069E370E066
:10124000FB013197EE0FFF1FDF01AB59B14B8FEF61
:1012500090E08D939C93DF01A952B14BD2C016163A
:10126000170614F061E070E06A33710514F069E369
:1012700070E0FB013197EE0FFF1FDF01AB59B14B5F
:101280001D921C92DF01A952B14B8FEF90E04EC12D
:101290001616170614F061E070E06A33710514F059
:1012A00069E370E0FB013197EE0FFF1FDF01AB59DF
:1012B000B14B8FEF90E08D939C93DF01A952B14B1E
:1012C0001D921C9235C11616170614F061E070E0ED
:1012D0006A33710514F069E370E0FB013197EE0F9A
:1012E000FF1FDF01AB59B14B8FEF90E04FC01616D7
:1012F000170614F061E070E06A33710514F069E3D9
:1013000070E0FB013197EE0FFF1FDF01AB59B14BCE
:1013100080E890E05BCF1616170614F061E070E0ED
:101320006A33710514F069E370E0FB013197EE0F49
:10133000FF1FDF01AB59B14B1D921C9242C0161624
:10134000170614F061E070E06A33710514F069E388
:1013500070E0FB013197EE0FFF1FDF01AB59B14B7E
:101360001D921C926AC01616170614F061E070E018
:101370006A33710514F069E370E0FB013197EE0FF9
:10138000FF1FDF01AB59B14B80E890E08D939C9338
:10139000DF01A952B14BCAC01616170614F061E05E
:1013A00070E06A33710514F069E370E0FB01319776
:1013B000EE0FFF1FDF01AB59B14B8FEF90E08D9324
:1013C0009C93DF01A952B14B80E890E01AC0161639
:1013D000170614F061E070E06A33710514F069E3F8
:1013E00070E0FB013197EE0FFF1FDF01AB59B14BEE
:1013F00080E890E08D939C93DF01A952B14B8FEF71
:1014000090E08D939C93E75BF04B108211820895DE
:101410001616170614F061E070E06A33710514F0D7
:1014200069E370E0FB013197EE0FFF1FDF01AB595D
:10143000B14B8FEF90E08D939C93DF01A952B14B9C
:101440001D921C9254C01616170614F061E070E04D
:101450006A33710514F069E370E0FB013197EE0F18
:10146000FF1FDF01AB59B14B80E890E08D939C9357
:10147000DF01A952B14B1D921C921AC01616170615
:1014800014F061E070E06A33710514F069E370E014
:10149000FB013197EE0FFF1FDF01AB59B14B1D92DE
:1014A0001C92DF01A952B14B80E890E08D939C9390
:1014B000E75BF04B8FEF90E03DC01616170614F077
:1014C00061E070E06A33710514F069E370E0FB01DC
:1014D0003197EE0FFF1FDF01AB59B14B1D921C92EC
:1014E000DF01A952B14B8FEF90E08D939C93E75BA6
:1014F000F04B80E890E01EC01616170614F061E06D
:1015000070E06A33710514F069E370E0FB01319714
:10151000EE0FFF1FDF01AB59B14B8FEF90E08D93C2
:101520009C93DF01A952B14B80E490E08D939C9392
:10153000E75BF04B8083918308951616170614F02D
:1015400061E070E06A33710514F069E370E0FB015B
:101550003197EE0FFF1FDF01AB59B14B20E430E0B4
:101560002D933C93DF01A952B14B8FEF90E08D9307
:101570009C93E75BF04B2083318308951616170682
:1015800014F061E070E06A33710514F069E370E013
:10159000FB013197EE0FFF1FDF01AB59B14B80E428
:1015A00090E08D939C93DF01A952B14B8D939C9356
:1015B000E75BF04B8FEF90E080839183089520E00C
:1015C0008FEF9FEF809344068093440680934406F8
:1015D0008093440680934406809344068093440697
:1015E0008093440680934406809344068093440687
:1015F0008093440680934406809344068093440677
:1016000080934406809344068093440610924406D7
:10161000109244061092440610924406109244061A
:10162000109244061092440610924406109244060A
:10163000109244062F5F273021F690934406909332
:1016400044069093440690934406909344069093E6
:1016500044069093440690934406909344069093D6
:1016600044069093440690934406909344069093C6
:1016700044069093440690934406909344069093B6
:1016800044061092440610924406109244061092AA
:10169000440610924406109244061092440610929A
:1016A000440608950E94DF0A0E94DF0A0E94DF0AB2
:1016B000089520E08FEF9FEF8093440680934406C7
:1016C00080934406809344068093440680934406A6
:1016D0008093440680934406809344068093440696
:1016E000109244061092440610924406109244064A
:1016F000109244061092440610924406109244063A
:101700001092440610924406109244061092440629
:101710001092440610924406109244061092440619
:101720001092440610924406109244062F5F273010
:1017300011F6909344069093440690934406909338
:1017400044069093440690934406909344069093E5
:1017500044069093440690934406109244061092D7
:1017600044061092440610924406109244061092C9
:1017700044061092440610924406109244061092B9
:1017800044061092440610924406109244061092A9
:101790004406109244061092440610924406109299
:1017A000440608950E94590B0E94DF0A0E94DF0A36
:1017B00008950E94DF0A0E94590B0E94DF0A0895D3
:1017C0000E94DF0A0E94DF0A0E94590B08950E94BE
:1017D000590B0E94590B0E94DF0A08950E94DF0AEC
:1017E0000E94590B0E94590B08950E94590B0E94A8
:1017F000DF0A0E94590B08950E94590B0E94590B51
:101800000E94590B08958FEF8093440680934406FD
:101810008093440680934406809344068093440654
:101820008093440680934406809344068093440644
:1018300010924406109244061092440610924406F8
:1018400010924406109244061092440610924406E8
:1018500010924406109244061092440610924406D8
:1018600010924406109244061092440610924406C8
:1018700010924406109244061092440620E09FEF16
:1018800080934406809344068093440680934406E4
:1018900080934406809344068093440680934406D4
:1018A00080934406809344068093440680934406C4
:1018B00080934406809344068093440680934406B4
:1018C0008093440680934406109244061092440686
:1018D0001092440610924406109244061092440658
:1018E0001092440610924406109244061092440648
:1018F0002F5F263021F690934406909344069093F0
:101900004406909344069093440690934406909323
:101910004406909344069093440690934406909313
:101920004406909344069093440690934406909303
:101930004406909344069093440690934406109274
:1019400044061092440610924406109244061092E7
:1019500044061092440610924406109244060895DC
:101960000E94DF0A0E94590B0E94030C08950E94F6
:10197000030C0E94590B0E94DF0A08950E94590B24
:101980000E94030C0E94DF0A08950E94590B0E94D6
:10199000DF0A0E94030C08950E94DF0A0E94030CD4
:1019A0000E94590B08950E94030C0E94DF0A0E94B6
:1019B000590B08950E94030C0E94030C0E94030C13
:1019C00008950E94590B0E94590B0E94030C089520
:1019D0000E94030C0E94590B0E94590B08950E940B
:1019E000590B0E94030C0E94590B089590E08FEF51
:1019F0008093440680934406809344068093440673
:101A00008093440680934406809344068093440662
:101A10008093440680934406109244061092440634
:101A20001092440610924406109244061092440606
:101A300010924406109244061092440610924406F6
:101A400010924406109244061092440610924406E6
:101A500010924406109244061092440610924406D6
:101A6000109244069F5F923019F620E08FEF9FEFAF
:101A700080934406809344068093440680934406F2
:101A800080934406809344068093440680934406E2
:101A900080934406809344068093440680934406D2
:101AA00080934406809344068093440680934406C2
:101AB0008093440680934406109244061092440694
:101AC0001092440610924406109244061092440666
:101AD0001092440610924406109244061092440656
:101AE0002F5F253021F690934406909344069093FF
:101AF0004406909344069093440690934406909332
:101B00004406909344069093440690934406909321
:101B10004406909344069093440690934406909311
:101B20004406909344069093440690934406109282
:101B300044061092440610924406109244061092F5
:101B400044061092440610924406109244060895EA
:101B50000E94F60C0E94F60C0E94DF0A08950E9473
:101B6000DF0A0E94F60C0E94F60C08950E94F60C03
:101B70000E94DF0A0E94F60C08954FEF50E0481BC8
:101B8000590B45355105C4F49A01220F331F240F18
:101B9000351F88279927821B930B81509F4F809375
:101BA000BB4F9093BC4F1092BD4F1092BE4F2093ED
:101BB000BF4F3093C04F36C04A3A5105D4F49A0112
:101BC000255530401092BB4F1092BC4FC901880F71
:101BD000991F820F931F8093BD4F9093BE4F909596
:101BE00081959F4F81509F4F8093BF4F9093C04FDF
:101BF00019C09A012A5A3040C901880F991F820FD3
:101C0000931F8093BB4F9093BC4F909581959F4FAE
:101C100081509F4F8093BD4F9093BE4F1092BF4F06
:101C20001092C04F8BEB9FE408952F923F924F92FA
:101C30005F926F927F928F929F92AF92BF92CF925C
:101C4000DF92EF92FF920F931F93DF93CF9300D019
:101C50000F92CDB7DEB789839A831B012A0184E6F0
:101C600090E0AC01249FC001259F900D349F900D02
:101C700011241B821C823C01882477FC8094982CC0
:101C800019C0EB81FC8131971E161F0614F0E1E0AC
:101C9000F0E03197EE0FFF1FDF01AB59B14B1D9202
:101CA0001C92DF01A952B14B1D921C92E75BF04BD5
:101CB00010821182EB81FC811E161F0614F0E1E0F8
:101CC000F0E03197EE0FFF1F9F012B59314B4981F7
:101CD0005A81D9014D935C93DF01A952B14B2D92EA
:101CE0003C92E75BF04B408251820E947708C4012E
:101CF000B3010E9438055B016C0120E030E040E850
:101D000051E40E9402037B018C0120E030E040E8B6
:101D10005FE30E940805882314F461E053C0C80102
:101D2000B70120E030E04FE753E40E94A804181602
:101D30000CF044C0C601B50120E030E04AE754E4AD
:101D40000E94FC035B016C0120E030E84BE356E4A9
:101D50000E9402037B018C0120E030E040E85FE359
:101D60000E94080588231CF461E070E023C0C801CC
:101D7000B70120E03FEF4FE757E40E94A804181690
:101D8000ACF4C601B50120E030E040E251E40E942D
:101D900002030E942C0106C080EB94E00197F1F74A
:101DA0006150704061157105B9F70EC0C801B701E7
:101DB0000E942C01CB010197F1F706C0C801B701C1
:101DC0000E942C016A95F1F78B819C8101968B838F
:101DD0009C83C99709F055CF0E94570880E090E096
:101DE0002FEF30E0FC011816190614F0E1E0F0E0E6
:101DF0003197EE0FFF1FDF01AB59B14B2D933C9391
:101E0000DF01A952B14B2D933C93E75BF04B20834C
:101E1000318301968933910529F70E94770824962A
:101E2000CDBFDEBFCF91DF911F910F91FF90EF905B
:101E3000DF90CF90BF90AF909F908F907F906F90EA
:101E40005F904F903F902F9008958FEF80934006C2
:101E50001092800681E090E00E94D4148093C74FD6
:101E60008150853018F081E08093C74F0E9493081D
:101E700008959C0180319105D0F08091C74F8F5F0C
:101E80008093C74F863010F4882319F481E0809343
:101E9000C74F81E090E06091C74F0E94E41482E058
:101EA00090E061E00E94E4148091C74F20C08091CF
:101EB000082190E08217930710F080E0089582E0F7
:101EC00090E00E94D4148F5F8093C84F893010F443
:101ED000882319F481E08093C84F82E090E06091FC
:101EE000C84F0E94E41481E090E00E94D414833033
:101EF00051F49FB7F89488ED84BF81E0E8E7F0E003
:101F000081839FBF089581E008951092644E80916F
:101F1000880685FD03C081E08093644E2091644E65
:101F2000213049F48091C14F9091C24F0196809326
:101F3000C14F9093C24F8091C34F821751F4222317
:101F400041F48091C14F9091C24F0E94390F282FC8
:101F500001C020E09091644E992341F48091C34FD9
:101F6000882321F41092C14F1092C24F9093C34F17
:101F7000822F0895AF92BF92CF92DF92EF92FF929D
:101F80000F931F93CF93DF936C017B018A01C0E015
:101F9000D0E0E0EBAE2EE4E0BE2EFE011C161D06E6
:101FA00014F0E1E0F0E03197EE0FFF1FDF01AB59D5
:101FB000B14BCD92DC92DF01A952B14BED92FC9274
:101FC000E75BF04B008311830E9477088AEF90E073
:101FD000F5013197F1F70197D9F70E94850F81300C
:101FE00021F02196C933D105C1F6DF91CF911F9120
:101FF0000F91FF90EF90DF90CF90BF90AF9008953A
:10200000AF92BF92CF92DF92EF92FF921F93CF9346
:10201000DF93BCE3EB2EF12CA9E5CA2EADE0DA2E5E
:10202000F8E5AF2EF2E0BF2E22C08881612F0E941A
:10203000AC08219711501130C1F70E947708C701F1
:1020400064E170E00E947614892B21F40E94850FD0
:10205000813091F0C5010197F1F70894E108F1088A
:1020600088EC9FEFC80ED91EE114F10429F0E601B7
:10207000CD58D24D1AE3D9CFDF91CF911F91FF9068
:10208000EF90DF90CF90BF90AF900895AF92BF9246
:10209000CF92DF92EF92FF921F93CF93DF930E9434
:1020A000570899E5E92EF12C8AE0C82E84E1D82E54
:1020B00018E5A12E12E0B12E21C08881612F0E9467
:1020C000AC0821971150C9F70E947708C70164E155
:1020D00070E00E947614892B21F40E94850F8130D4
:1020E00091F0C5010197F1F70894E108F10887EC38
:1020F0009FEFC80ED91EE114F10429F0E601CD5678
:10210000D54C19E3DACFDF91CF911F91FF90EF907B
:10211000DF90CF90BF90AF900895AF92BF92CF92D3
:10212000DF92EF92FF921F93CF93DF930E945708A5
:1021300048E3E42EF12C38E7C32E3CE0D32E28E50B
:10214000A22E22E0B22E22C08881612F0E94AC080C
:10215000219711501130C1F70E947708C70164E13F
:1021600070E00E947614892B21F40E94850F813043
:1021700091F0C5010197F1F70894E108F10888ECA6
:102180009FEFC80ED91EE114F10429F0E601CD5CE1
:10219000DE4D19E3D9CFDF91CF911F91FF90EF90E2
:1021A000DF90CF90BF90AF9008951F93CF93DF93B0
:1021B00087EE80930821C0E0D0E00E948D10219628
:1021C0008DE0C630D807C9F781E090E00E94D414B2
:1021D000182F02C00E94001081E090E00E94D414E9
:1021E0001817C1F3DF91CF911F9108956F927F92DD
:1021F0008F929F92AF92BF92CF92DF92EF92FF9217
:102200000F931F93CF93DF934C01AA24BB2470EB51
:10221000672E74E0772E83C0C8018A0D9B1D6FEF77
:1022200070E00E9476140E94BD0DFC0180819181B6
:102230002281338144815581CA33D10519F4E9E300
:10224000F0E006C0FE011C161D0614F0E1E0F0E00F
:102250003197EE0FFF1FDF01AB59B14B8D939C936C
:10226000DF01A952B14B2D933C93E75BF04B4083C8
:1022700051830D5F1F4F23960933110569F60E94A4
:102280007708C0E0D0E00DC08AEF90E0F30131970D
:10229000F1F70197D9F70E94850F813009F442C008
:1022A0002196C815D90584F380E090E02AE3E21670
:1022B000F10419F4E9E3F0E006C0F7011E141F046D
:1022C00014F0E1E0F0E03197EE0FFF1FDF01AB59B2
:1022D000B14B1D921C92DF01A952B14B1D921C9271
:1022E000E75BF04B10821182039623E030E0E20EB0
:1022F000F31E89339105D1F60894C11CD11C33E03B
:10230000C316D10429F07601E60100E010E084CF85
:102310000894A11CB11C8AE0A816B10419F0CC24C1
:10232000DD24F1CFDF91CF911F910F91FF90EF90BE
:10233000DF90CF90BF90AF909F908F907F906F90E5
:1023400008952F923F924F925F926F927F928F9259
:102350009F92AF92BF92CF92DF92EF92FF920F9334
:102360001F93CF93DF932C013B014A015901CC24E9
:10237000DD2410EB212E14E0312E70C08A3391053C
:1023800019F4E9E3F0E006C0FC011816190614F090
:10239000E1E0F0E03197EE0FFF1FDF01AB59B14BE9
:1023A0004D925C92DF01A952B14B6D927C92E75B3A
:1023B000F04B808291822D5F3F4F03962933310588
:1023C000E9F60E947708C0E0D0E00DC08AEF90E007
:1023D000F1013197F1F70197D9F70E94850F81300C
:1023E00009F43FC02196CA15DB0584F380E090E034
:1023F0000A33110519F4E9E3F0E006C0F8011016FC
:10240000110614F0E1E0F0E03197EE0FFF1FDF015D
:10241000AB59B14B1D921C92DF01A952B14B1D92D9
:102420001C92E75BF04B1082118203960D5F1F4FE9
:1024300089339105E9F60894E11CF11C83E0E81664
:10244000F10429F08701C70120E030E097CF08941C
:10245000C11CD11C8AE0C816D10419F0EE24FF2457
:10246000F1CFDF91CF911F910F91FF90EF90DF900F
:10247000CF90BF90AF909F908F907F906F905F9024
:102480004F903F902F900895AF92BF92CF92DF92DE
:10249000EF92FF920F931F93CF93DF936C01EE2483
:1024A000FF2470EBA72E74E0B72E45C0C8018E0D37
:1024B0009F1D90700E94BD0DEC012A813B814C81D3
:1024C0005D81F8011016110614F0E1E0F0E031979B
:1024D000EE0FFF1FDF01AB59B14B888199818D93BE
:1024E0009C93DF01A952B14B2D933C93E75BF04BDA
:1024F000408351830F5F1F4F09331105B9F60E94C6
:102500007708C0E0D0E00CC08AEF90E0F501319789
:10251000F1F70197D9F70E94850F813079F0219664
:10252000CC15DD058CF30894E11CF11C80E0E81665
:1025300081E0F80619F000E010E0B8CFDF91CF910C
:102540001F910F91FF90EF90DF90CF90BF90AF90D1
:102550000895CF93DF9387EE8093082181E090E088
:102560000E94D4148093C44F8FEF90E06FEF70E01F
:102570004FEF50E021E030E00E94BA0F81E090E0A0
:102580000E94D4149091C44F981709F07BC081E049
:1025900090E00E94441281E090E00E94D414909157
:1025A000C44F981709F06EC08FEF90E060E070E0C4
:1025B00040E050E021E030E00E94BA0F81E090E07E
:1025C0000E94D4149091C44F981709F05BC080E02A
:1025D00090E06FEF70E040E050E021E030E00E94DA
:1025E000BA0F81E090E00E94D4149091C44F9817E4
:1025F00009F048C080E090E060E070E04FEF50E00C
:1026000021E030E00E94BA0F81E090E00E94D414F3
:102610009091C44F9817B1F588EE93E020EB34E029
:10262000F9013197F1F70197D9F70E9457080E94F5
:10263000770881E090E00E94F61081E090E00E942F
:10264000D4149091C44F9817E9F4C0E0D0E00E94F0
:102650008D1081E090E00E94D4149091C44F98179F
:1026600089F42196C233D10591F78FEF90E060E0B5
:1026700070E040E050E024E130E00E94150E82E07E
:1026800080930821DF91CF910895EF92FF920F93ED
:102690001F93CF93DF930E94250FC0EBD4E002E09D
:1026A00090E4E92EF12C81E090E00E94D414833074
:1026B00009F49CC0843030F4813059F0823009F044
:1026C0000BC121C0843009F4B7C0853009F004C1C2
:1026D000DBC010E082E090E00E94D414E82FF0E02C
:1026E000EE0FFF1FE75FFE4D0190F081E02D199581
:1026F0001F5F1A3379F78AEF90E0FE013197F1F707
:102700000197D9F7F0C082E090E00E94D4148430A1
:1027100029F1853040F4823089F08330A0F4813093
:1027200009F0C1CF06C0853001F1893008F0BBCF78
:1027300057C085E090E00E944412B5CF8FEF90E043
:1027400060E070E004C080E090E06FEF70E040E097
:1027500050E023E030E00E94A111A5CF80E090E09E
:1027600060E070E04FEF50E0F4CF8FEF90E060E07A
:1027700070E040E050E025E030E00E94BA0F81E0D8
:1027800090E00E94D414823009F08DCF82E090E076
:102790000E94D414853009F086CF80E090E06FEF7E
:1027A00070E040E050E025E030E00E94BA0F81E0A8
:1027B00090E00E94D414823009F075CF82E090E05E
:1027C0000E94D414853009F06ECF80E090E060E084
:1027D00070E04FEF50E025E030E00E94BA0F63CF89
:1027E00082E090E061E00E94E4145DCF82E090E03E
:1027F0000E94D414823069F0833018F48130A1F43F
:1028000005C0833049F0843079F409C00E948D10EE
:102810000BC00E94001008C00E94461005C082E054
:1028200090E061E00E94E4148AEF90E0FE013197AD
:10283000F1F70197D9F757C082E090E00E94D414D5
:10284000813029F08130B0F08930A0F411C00E94AD
:102850005708E092654EF092664E1092D74E109255
:10286000D84E1092494F10924A4F0E94770802C0EA
:102870000E94A912009308218AEF90E0FE0131978F
:10288000F1F70197D9F72FC082E090E00E94D414AD
:10289000813029F08130B0F08830A0F411C00E945E
:1028A00057081092654E1092664EE092D74EF09205
:1028B000D84E1092494F10924A4F0E94770802C09A
:1028C0000E94D510009308218AEF90E0FE01319715
:1028D000F1F70197D9F707C08AEF90E0FE01319731
:1028E000F1F70197D9F70E94850FDDCE97FB092EEE
:1028F00007260AD077FD04D00CD006D000201AF4A9
:10290000709561957F4F0895F6F7909581959F4F4B
:102910000895AA1BBB1B51E107C0AA1FBB1FA61726
:10292000B70710F0A61BB70B881F991F5A95A9F778
:1029300080959095BC01CD0108952F923F924F92C2
:102940005F926F927F928F929F92AF92BF92CF923F
:10295000DF92EF92FF920F931F93CF93DF93CDB748
:10296000DEB7CA1BDB0B0FB6F894DEBF0FBECDBFC0
:1029700019942A88398848885F846E847D848C8481
:102980009B84AA84B984C884DF80EE80FD800C819A
:102990001B81AA81B981CE0FD11D0FB6F894DEBF7D
:1029A0000FBECDBFED01089503D080819927089512
:1029B000E0ECF1E0378537FDFDCF348538603487B2
:1029C000FC01E050F04F0895262FE0ECF1E0378550
:1029D00037FDFDCF3485377F3487378531FF09C018
:1029E00036E3328738ED34BF31E03387378537FD42
:1029F000FDCF33E33287808391831282248325E3E2
:102A0000228728ED31E024BF338701960895F8949A
:022A1000FFCFF6
:102A120000000000000000000001020203030303A3
:102A2200040404040404040405050505050505055C
:102A3200050505050505050506060606060606063C
:102A42000606060606060606060606060606060624
:102A5200060606060606060607070707070707070C
:102A620007070707070707070707070707070707F4
:102A720007070707070707070707070707070707E4
:102A820007070707070707070707070707070707D4
:102A920007070707070707070808080808080808BC
:102AA20008080808080808080808080808080808A4
:102AB2000808080808080808080808080808080894
:102AC2000808080808080808080808080808080884
:102AD2000808080808080808080808080808080874
:102AE2000808080808080808080808080808080864
:102AF2000808080808080808080808080808080854
:102B02000808080808080808080808080808080843
:102B1200080808080808080802FC0BF50BEE0BE78A
:102B22000BE00BD90BD20B520BEF0CE80CE10CDAD9
:102B32000CD30CCC0CC50CBE0CB70CB00CB60DAF44
:102B42000DA80D02020202020202020202020202A7
:102B52000202020202020202020202020202020F46
:102B62000F0F0F0F0F0F0F0F0F0F0F0F0F0F0F0F73
:102B72000F0F0F0F0F0F0F0F0F0F0F0202020202A4
:102B82000202020202020202020202020202020223
:102B9200020202020202020F0F0F0F0F0F0F0F0F9E
:102BA2000F0F0F0F0F0F0F0F0F0F0F0F0F0F0F0F33
:102BB2000F0F0F02020202020202020202020202CC
:102BC2000202020202020202020202020202020FD6
:102BD2000F0F0F0F0F0F0F0F0F0F0F0F0F0F0F0F03
:102BE2000F0F0F0F0F0F0F0F0F0F0F020202020234
:102BF20002020202020202020202020202020202B3
:102C0200020202020202020F0F0F0F0F0F0F0F0F2D
:102C12000F0F0F0F0F0F0F0F0F0F0F0F0F0F0F0FC2
:102C22000F0F0F020202020202020202020202025B
:102C32000202020202020202020202020202020F65
:102C42000F0F0F0F0F0F0F0F0F0F0F0F0F0F0F0F92
:102C52000F0F0F0F0F0F0F0F0F0F0F0202020202C3
:102C62000202020202020202020202020202020242
:102C7200020202020202020F0F0F0F0F0F0F0F0FBD
:102C82000F0F0F0F0F0F0F0F0F0F0F0F0F0F0F0F52
:102C92000F0F0F02020202020202020202020202EB
:102CA2000202020202020202020202020202020FF5
:102CB2000F0F0F0F0F0F0F0F0F0F0F0F0F0F0F0F22
:102CC2000F0F0F0F0F0F0F0F0F0F0F020202020253
:102CD20002020202020202020202020202020202D2
:102CE200020202020202020F0F0F0F0F0F0F0F0F4D
:102CF2000F0F0F0F0F0F0F0F0F0F0F0F0F0F0F0FE2
:102D02000F0F0F020202020202020202020202027A
:102D12000202020202020202020202020202020F84
:102D22000F0F0F0F0F0F0F0F0F0F0F0F0F0F0F0FB1
:102D32000F0F0F0F0F0F0F0F0F0F0F0202020202E2
:102D42000202020202020202020202020202020261
:102D5200020202020202020F0F0F0F0F0F0F0F0FDC
:102D62000F0F0F0F0F0F0F0F0F0F0F0F0F0F0F0F71
:102D72000F0F0F020202020202020202020202020A
:102D82000202020202020202020202020202020F14
:102D92000F0F0F0F0F0F0F0F0F0F0F0F0F0F0F0F41
:102DA2000F0F0F0F0F0F0F0F0F0F0F020202020272
:102DB20002020202020202020202020202020202F1
:102DC200020202020202020F0F0F0F0F0F0F0F0F6C
:102DD2000F0F0F0F0F0F0F0F0F0F0F0F0F0F0F0F01
:102DE2000F0F0F020202020202020202020202029A
:102DF2000202020202020202020202020202020FA4
:102E02000F0F0F0F0F0F0F0F0F0F0F0F0F0F0F0FD0
:102E12000F0F0F0F0F0F0F0F0F0F0F020202020201
:102E22000202020202020202020202020202020280
:102E3200020202020202020F0F0F0F0F0F0F0F0FFB
:102E42000F0F0F0F0F0F0F0F0F0F0F0F0F0F0F0F90
:102E52000F0F0F0202020202020202020202020229
:102E62000202020202020202020202020202020F33
:102E72000F0F0F0F0F0F0F0F0F0F0F0F0F0F0F0F60
:102E82000F0F0F0F0F0F0F0F0F0F0F020202020291
:102E92000202020202020202020202020202020210
:102EA200020202020202020F0F0F0F0F0F0F0F0F8B
:102EB2000F0F0F0F0F0F0F0F0F0F0F0F0F0F0F0F20
:102EC2000F0F0F02020202020202020202020202B9
:102ED2000202020202020202020202020202020FC3
:102EE2000F0F0F0F0F0F0F0F0F0F0F0F0F0F0F0FF0
:102EF2000F0F0F0F0F0F0F0F0F0F0F020202020221
:102F0200020202020202020202020202020202029F
:102F1200020202020202020F0F0F0F0F0F0F0F0F1A
:102F22000F0F0F0F0F0F0F0F0F0F0F0F0F0F0F0FAF
:102F32000F0F0F0202020202020202020202020248
:102F42000202020202020202020202020202020F52
:102F52000F0F0F0F0F0F0F0F0F0F0F0F0F0F0F0F7F
:102F62000F0F0F0F0F0F0F0F0F0F0F0202020202B0
:102F7200020202020202020202020202020202022F
:102F8200020202020202020F0F0F0F0F0F0F0F0FAA
:102F92000F0F0F0F0F0F0F0F0F0F0F0F0F0F0F0F3F
:102FA2000F0F0F02020202020202020202020202D8
:102FB2000202020202020202020202020202020FE2
:102FC2000F0F0F0F0F0F0F0F0F0F0F0F0F0F0F0F0F
:102FD2000F0F0F0F0F0F0F0F0F0F0F020202020240
:102FE20002020202020202020202020202020202BF
:102FF200020202020202020F0F0F0F0F0F0F0F0F3A
:103002000F0F0F0F0F0F0F0F0F0F0F0F0F0F0F0FCE
:103012000F0F0F0202020202020202020202020267
:103022000202020202020202020202020202020F71
:103032000F0F0F0F0F0F0F0F0F0F0F0F0F0F0F0F9E
:103042000F0F0F0F0F0F0F0F0F0F0F0202020202CF
:10305200020202020202020202020202020202024E
:10306200020202020202020F0F0F0F0F0F0F0F0FC9
:103072000F0F0F0F0F0F0F0F0F0F0F0F0F0F0F0F5E
:103082000F0F0F02020202020202020202020202F7
:103092000202020202020202020202020202020F01
:1030A2000F0F0F0F0F0F0F0F0F0F0F0F0F0F0F0F2E
:1030B2000F0F0F0F0F0F0F0F0F0F0F02020202025F
:1030C20002020202020202020202020202020202DE
:1030D200020202020202020F0F0F0F0F0F0F0F0F59
:1030E2000F0F0F0F0F0F0F0F0F0F0F0F0F0F0F0FEE
:1030F2000F0F0F0202020202020202020202020287
:103102000202020202020202020202020202020F90
:103112000F0F0F0F0F0F0F0F0F0F0F0F0F0F0F0FBD
:103122000F0F0F0F0F0F0F0F0F0F0F0202020202EE
:10313200020202020202020202020202020202026D
:10314200020202020202020F0F0F0F0F0F0F0F0FE8
:103152000F0F0F0F0F0F0F0F0F0F0F0F0F0F0F0F7D
:103162000F0F0F0F0F0F0F0F0F0F0F0F0F0F0F0F6D
:103172000F0F0F0F0F0F0F0F0F0F0F0F0F0F0F026A
:10318200020202020202020202020202020202021D
:1031920002020202020202020202020F0F0F0F0FCC
:1031A2000F0F0F0F0F0F0F0F0F0F0F0F0F0F0F0F2D
:1031B2000F0F0F0F0F0F0F02020202020202020292
:1031C20002020202020202020202020202020202DD
:1031D2000202020F0F0F0F0F0F0F0F0F0F0F0F0F24
:1031E2000F0F0F0F0F0F0F0F0F0F0F0F0F0F0F02FA
:1031F20002020202020202020202020202020202AD
:1032020002020202020202020202020F0F0F0F0F5B
:103212000F0F0F0F0F0F0F0F0F0F0F0F0F0F0F0FBC
:103222000F0F0F0F0F0F0F02020202020202020221
:10323200020202020202020202020202020202026C
:103242000202020F0F0F0F0F0F0F0F0F0F0F0F0FB3
:103252000F0F0F0F0F0F0F0F0F0F0F0F0F0F0F0289
:10326200020202020202020202020202020202023C
:1032720002020202020202020202020F0F0F0F0FEB
:103282000F0F0F0F0F0F0F0F0F0F0F0F0F0F0F0F4C
:103292000F0F0F0F0F0F0F020202020202020202B1
:1032A20002020202020202020202020202020202FC
:1032B2000202020F0F0F0F0F0F0F0F0F0F0F0F0F43
:1032C2000F0F0F0F0F0F0F0F0F0F0F0F0F0F0F0219
:1032D20002020202020202020202020202020202CC
:1032E20002020202020202020202020F0F0F0F0F7B
:1032F2000F0F0F0F0F0F0F0F0F0F0F0F0F0F0F0FDC
:103302000F0F0F0F0F0F0F02020202020202020240
:10331200020202020202020202020202020202028B
:103322000202020F0F0F0F0F0F0F0F0F0F0F0F0FD2
:103332000F0F0F0F0F0F0F0F0F0F0F0F0F0F0F02A8
:10334200020202020202020202020202020202025B
:1033520002020202020202020202020F0F0F0F0F0A
:103362000F0F0F0F0F0F0F0F0F0F0F0F0F0F0F0F6B
:103372000F0F0F0F0F0F0F020202020202020202D0
:10338200020202020202020202020202020202021B
:103392000202020F0F0F0F0F0F0F0F0F0F0F0F0F62
:1033A2000F0F0F0F0F0F0F0F0F0F0F0F0F0F0F0238
:1033B20002020202020202020202020202020202EB
:1033C20002020202020202020202020F0F0F0F0F9A
:1033D2000F0F0F0F0F0F0F0F0F0F0F0F0F0F0F0FFB
:1033E2000F0F0F0F0F0F0F02020202020202020260
:1033F20002020202020202020202020202020202AB
:103402000202020F0F0F0F0F0F0F0F0F0F0F0F0FF1
:103412000F0F0F0F0F0F0F0F0F0F0F0F0F0F0F02C7
:10342200020202020202020202020202020202027A
:1034320002020202020202020202020F0F0F0F0F29
:103442000F0F0F0F0F0F0F0F0F0F0F0F0F0F0F0F8A
:103452000F0F0F0F0F0F0F020202020202020202EF
:10346200020202020202020202020202020202023A
:103472000202020F0F0F0F0F0F0F0F0F0F0F0F0F81
:103482000F0F0F0F0F0F0F0F0F0F0F0F0F0F0F0257
:10349200020202020202020202020202020202020A
:1034A20002020202020202020202020F0F0F0F0FB9
:1034B2000F0F0F0F0F0F0F0F0F0F0F0F0F0F0F0F1A
:1034C2000F0F0F0F0F0F0F0202020202020202027F
:1034D20002020202020202020202020202020202CA
:1034E2000202020F0F0F0F0F0F0F0F0F0F0F0F0F11
:1034F2000F0F0F0F0F0F0F0F0F0F0F0F0F0F0F02E7
:103502000202020202020202020202020202020299
:1035120002020202020202020202020F0F0F0F0F48
:103522000F0F0F0F0F0F0F0F0F0F0F0F0F0F0F0FA9
:103532000F0F0F0F0F0F0F0202020202020202020E
:103542000202020202020202020202020202020259
:103552000202020F0F0F0F0F0F0F0F0F0F0F0F0FA0
:103562000F0F0F0F0F0F0F0F0F0F0F0F0F0F0F0276
:103572000202020202020202020202020202020229
:1035820002020202020202020202020F0F0F0F0FD8
:103592000F0F0F0F0F0F0F0F0F0F0F0F0F0F0F0F39
:1035A2000F0F0F0F0F0F0F0202020202020202029E
:1035B20002020202020202020202020202020202E9
:1035C2000202020F0F0F0F0F0F0F0F0F0F0F0F0F30
:1035D2000F0F0F0F0F0F0F0F0F0F0F0F0F0F0F0206
:1035E20002020202020202020202020202020202B9
:1035F20002020202020202020202020F0F0F0F0F68
:103602000F0F0F0F0F0F0F0F0F0F0F0F0F0F0F0FC8
:103612000F0F0F0F0F0F0F0202020202020202022D
:103622000202020202020202020202020202020278
:103632000202020F0F0F0F0F0F0F0F0F0F0F0F0FBF
:103642000F0F0F0F0F0F0F0F0F0F0F0F0F0F0F0295
:103652000202020202020202020202020202020248
:1036620002020202020202020202020F0F0F0F0FF7
:103672000F0F0F0F0F0F0F0F0F0F0F0F0F0F0F0F58
:103682000F0F0F0F0F0F0F020202020202020202BD
:103692000202020202020202020202020202020208
:1036A2000202020F0F0F0F0F0F0F0F0F0F0F0F0F4F
:1036B2000F0F0F0F0F0F0F0F0F0F0F0F0F0F0F0225
:1036C20002020202020202020202020202020202D8
:1036D20002020202020202020202020F0F0F0F0F87
:1036E2000F0F0F0F0F0F0F0F0F0F0F0F0F0F0F0FE8
:1036F2000F0F0F0F0F0F0F0202020202020202024D
:103702000202020202020202020202020202020297
:103712000202020F0F0F0F0F0F0F0F0F0F0F0F0FDE
:103722000F0F0F0F0F0F0F0F0F0F0F0F0F0F0F02B4
:103732000202020202020202020202020202020267
:1037420002020202020202020202020F0F0F0F0F16
:103752000F0F0F0F0F0F0F0F0F0F0F0F0F0F0F0F77
:103762000F0F0F0F0F0F0F020202020202020202DC
:103772000202020202020202020202020202020227
:103782000202020000000000000404010101010124
:103792000101010101010101010101010101010117
:1037A20001010104040404040404040400000000F0
:1037B2000000000000000000000000000000000403
:1037C20004040101010101010101010101010101E1
:1037D20001010101010101010101010101040404CE
:1037E20004040400000000000000000000000000CB
:1037F20000000000000000040401010101010101B8
:1038020001010101010101010101010101010101A6
:1038120001010101010100000000000000000000A0
:10382200000000000000000000000000000004048E
:10383200040101010404010101010101010101016D
:103842000101010101010101010101010101010166
:103852000000000000000000000000000000000066
:103862000000000000040401010404040404040430
:103872000404010101010101010101010101010130
:10388200010101010101010101000000000000002D
:10389200000000000000000000000000000401041D
:1038A20004040404040404010101010101010101F1
:1038B20001010101010101010101010101010101F6
:1038C20001010100000000000000000000000000F3
:1038D20000000000000404040404040404040101C0
:1038E20001010101040404040401010101010101B7
:1038F20001010101010101010101010100000000BA
:1039020000000000000000000000000004040404A5
:103912000404040404040101010101040404040474
:10392200040404010101010101010101010101017C
:10393200010101010101010000000000000000007E
:10394200000000000404040404040404040401014B
:10395200010101040404040404040401010101013D
:103962000101010101010101010101010101010046
:103972000000000000000000000000000404040435
:1039820004040404040404040404040404040401F8
:103992000101010101010101010101010101010115
:1039A200010101010101010101000000000000000C
:1039B20000000000040404040404040404040404D5
:1039C20004040404040404040404040404040404B5
:1039D20001010101010101010101010101010101D5
:1039E20001010101010101010101010404040404B6
:1039F2000404040404040404040404040404040485
:103A02000404040404040404040401010101010186
:103A12000101010101010101010101010101010194
:103A2200010100040404040404040404040404045E
:103A32000404040404040404040404040404040444
:103A4200040404010101010101010101010101015B
:103A52000101010101010101010000040404040447
:103A62000404040404040404040404040404040414
:103A7200040404040404040404040404040101010D
:103A82000101010101010101010101010101010124
:103A920000000004040404040404040404040404F0
:103AA20004040404040404040404040404040404D4
:103AB20004010104040401010101010101010101E8
:103AC20001010101010101010000000104040404DB
:103AD20004040404040404040404040404040404A4
:103AE20004040404040101010101010101010101B5
:103AF20001010101010101010101010101010100B5
:103B02000000000101040404040404040404040485
:103B1200040404040404040404040404010101016F
:103B22000101010101010101010101010101010183
:103B3200010101010100000000000004010404046D
:103B42000404040404040404040404040404040433
:103B52000401010101010101010101010101010150
:103B62000101010101010101010101010000000047
:103B72000000000401040404040404040404040412
:103B82000404040404040404040101010101010108
:103B92000101010101010101010101010101010113
:103BA20001010101000000000000000404010404FE
:103BB20004040404040404040404040404040404C3
:103BC20001010101010101010101010101010101E3
:103BD20001010101010101010101010000000000D8
:103BE20000000000040101040404040404040404A9
:103BF20004040404040401010101010101010101A1
:103C020001010101010101010101010101010101A2
:103C12000101000000000000000000000404010196
:103C2200010404040404040404040404040101015E
:103C32000101010101010101010101010101010172
:103C42000101010101010101010000000000000069
:103C52000000000000000401010101040404040446
:103C6200040401010101010101010101010101013C
:103C72000101010101010101010101010101010132
:103C8200000000000000000000000000000000042E
:103C9200040101010101010101010101010101010F
:103CA2000101010101010101010101010101010102
:103CB20001010101010100000000000000000000FC
:103CC20000000000000000040404010101010101E0
:103CD20001010101010101010101010101010101D2
:103CE20001010101010101010101010000000000C7
:103CF20000000000000000000000000000000000C2
:103D0200000404010101010101010101010101019C
:103D12000101010101010101010101010101010191
:103D22000100000000000000000000000000000090
:103D32000000000000000000000004040101010175
:103D42000101010101010101010101010101010161
:103D52000000000000000000000000000000000061
:103D62000000000000000000000000000000000051
:103D7200000000040404010101010101010101012B
:103D82000101010101010101010101000000000026
:103D92000000000000000000000000000000000021
:103DA2000000000000000000000000040404010103
:103DB20001010101010101010101010101010101F1
:103DC20001010100000000000000000000000000EE
:103DD20000000000000000000000000000000000E1
:103DE20000000000040404040101010101010101B9
:103DF20001010101010101010101000000000000B7
:103E020000000000000000000000000000000000B0
:103E12000000000000000000000000000004040494
:103E2200040401010101010101010101010101017A
:103E32000000000000000000000000000000000080
:103E42000000000000000000000000000000000070
:103E5200000000000000040404040404040401013E
:103E6200010101010100000000000000000000004B
:103E72000000000000000000000000000000000040
:103E82000000000000000000000000000404040420
:103E92000404040404040404000000000000000000
:103EA2000000000000000000000000000000000010
:103EB2000000000000000000000000000000000000
:103EC20000000404040404040404040404040400BC
:103ED20000000000000000000000000000000000E0
:103EE20000000000000000000000000000000000D0
:103EF20000000000000000000004040404040404A4
:103F02000404040404040404040404000000000083
:103F1200000000000000000000000000000000009F
:103F2200000000000000000000000000000000048B
:103F3200040404040101010101010101010404045A
:103F4200040404040000000000000000000000005F
:103F5200000000000000000000000000000000005F
:103F62000000000000000404040401010101010139
:103F7200010101010101010104040404040400001F
:103F8200000000000000000000000000000000002F
:103F92000000000000000000000000000000040417
:103FA20004040101010101010101010101010101F9
:103FB20004040404040400000000000000000000E7
:103FC20000000000000000000000000000000000EF
:103FD20000000000000004010101010101010101D2
:103FE20001010101010101010101010404040400B4
:103FF20000000000000000000000000000000000BF
:1040020000000000000000000000000000040101A8
:10401200010101010101010101010101010101018E
:10402200010101010404040400000000000000007A
:10403200000000000000000000000000000000007E
:10404200000000000004010101010401010101015D
:104052000101010101010101010101010101040448
:10406200040000000000000000000000000000004A
:104072000000000000000000000000000401040431
:104082000404040404040401010101010101010109
:10409200010101010101010404040000000000000B
:1040A200000000000000000000000000000000000E
:1040B20000000000010404040404040404040404D1
:1040C20001010101010101010101010101010101DE
:1040D20001040404040000000000000000000000CD
:1040E20000000000000000000000000004040404BE
:1040F200040404040404040404040401010101018D
:10410200010101010101010101010404040404048B
:10411200000000000000000000000000000000009D
:104122000000000404040404040404040404040459
:104132000404040401010101010101010101010161
:104142000101010101000000000000000000000068
:104152000000000000000000000000040404040449
:104162000404040404040404040404040401010116
:10417200010101010101010101010101010100002F
:10418200000000000000000000000000000000002D
:1041920000000004040404040404040404040404E9
:1041A20004040404040401010101010101010101EB
:1041B20001010101010101010100000000000000F4
:1041C20001000000000000000000000404040404D8
:1041D20004040404040404040404040404040101A3
:1041E20001010101010101010101010101010101BD
:1041F20001000000000000000100000000000000BB
:104202000000000404040404040404040404040478
:104212000404040404040404010101010101010174
:10422200010101010101010101010101010101017C
:104232000100000000000000000000040404040467
:10424200040404040404040404040404040404042C
:104252000401010101010101010101010101010149
:104262000101010101010100000000000000000045
:10427200000000000404040404040404040404040C
:104282000404040404040401010101010101010107
:104292000101010101010101010101010000000010
:1042A20000000000000000000000000004040404FC
:1042B20004040404040404040404040404040101C2
:1042C20001010101010101010101010101010000DE
:1042D20000000000000000000000000000000000DC
:1042E200000000000404040404040404040404049C
:1042F20004040404010101010101010101010101A0
:1043020001000000000000000000000000000000AA
:10431200000000000000000000000000040104048E
:10432200040404040404040404040101010101015D
:104332000101010101010000000000000000000075
:10434200000000000000000000000000000000006B
:104352000000000000010101010104040404010144
:10436200010101010101010101010101010000003E
:10437200000000000000000000000000000000003B
:104382000000000000000000000000000004010125
:10439200010101010101010101010101010101010B
:1043A2000101010101010000000000000000000005
:1043B20000000000000000000000000000000000FB
:1043C20000000000000004010101010101010101DE
:1043D20001010101010101010100000000000000D2
:1043E20000000000000000000000000000000000CB
:1043F20000000000000000000000000000000401B6
:10440200010101010101010101010101010101019A
:104412000100000000000000000000000000000099
:10442200000000000000000000000000000000008A
:10443200000000000000000404010101010101016B
:104442000101010101010000000000000000000064
:10445200000000000000000000000000000000005A
:10446200000000000000000000000000000000004A
:104472000004040401010101010100000000000028
:10448200000000000000000000000000000000002A
:10449200000000000000000000000000000000001A
:1044A200000000000000000000000000000000000A
:1044B20000000000000000000000000001010101F6
:1044C20001010100000000000000000000000000E7
:1044D20000000000000000000000000000000000DA
:1044E20000000000000000000000000000000000CA
:1044F20000000000000101010101010100000000B3
:1045020000000000000000000000000000000000A9
:104512000000000000000000000000000000000099
:104522000000000000000000000000000000010187
:104532000101010101000000000000000000000074
:104542000000000000000000000000000000000069
:104552000000000000000000000000000000000059
:104562000101010101010101010101010101010139
:104572000101010101000000000000000000000034
:104582000000000000000000000000000000000029
:104592000000000000000000000101010101010112
:1045A20001010101010101010101010101010000FB
:1045B20000000000000000000000000000000000F9
:1045C20000000000000000000000000000000000E9
:1045D20001010101010101010101010101010101C9
:1045E20001010101010101010100000000000000C0
:1045F20000000000000000000000000000000000B9
:1046020000000000000000000001010101010101A1
:104612000101010101010101010101010101010188
:104622000101000000000000000000000000000086
:104632000000000000000000000000000000000078
:10464200010101010101010101010100000000005D
:10465200000000000101010101010101010000004F
:104662000000000000000000000000000000000048
:104672000000000000000000000101010101010131
:104682000101010100000000000000000001010121
:104692000101010101010000000000000000000012
:1046A2000000000000000000000000000000000008
:1046B20000000101010101010101010101000000ED
:1046C20000000000000001010101010101010100DF
:1046D20000000000000000000000000000000000D8
:1046E20000000000000000000000000101010101C3
:1046F20001010101000000000000000000000000B4
:10470200000101010101010101010100000000009D
:104712000000000000000000000000000000000097
:10472200000000000101010101010101010000007E
:104732000000000000000000000001010101010171
:104742000101010100000000000000000000000063
:104752000000000000000000000001010101010151
:104762000100000000000000000000000000000046
:104772000000000000000101010101010100000030
:104782000000000000000000000000000000000027
:104792000000000101010101010100000000000010
:1047A2000000000000000000000000000000000106
:1047B20001010101010100000000000000000000F1
:1047C20000000000000000000000010101010101E1
:1047D20001000000000000000000000000000000D6
:1047E20000000000000000000000010101010101C1
:1047F20001000000000000000000000000000000B6
:10480200000000010101010101010000000000009F
:104812000000000000000000000000000000000096
:10482200000000010101010101010000000000007F
:104832000000000000000000000000000101010172
:104842000101010000000000000000000000000063
:104852000000000000000000000000000101010152
:104862000101010101000000000000000000000041
:10487200000000000001010101010101000000002F
:104882000000000000000000000000000000000026
:10489200000000000001010101010101010100000D
:1048A2000000000000000000000000000000010104
:1048B20001010101010000000000000000000000F1
:1048C20000000000000000000000000000000101E4
:1048D20001010101010101000000000000000000CF
:1048E20000000000000101010101010100000000BF
:1048F20000000000000000000000000000000000B6
:10490200000000000000000000010101010101019E
:104912000000000000000000000000000000010193
:104922000101010101000000000000000000000080
:104932000000000000000000000000000000000075
:10494200000001010101010101000000000000005E
:104952000000000000000001010101000000000051
:104962000000000000000000000000000000000045
:104972000000000000000000000000000000010133
:104982000101000000000000000000000000000023
:104992000101010100000000000000000000000011
:1049A2000000000000000000000000000000000005
:1049B20000000000000000010101010000000000F1
:1049C20000000000000000000001010101000000E1
:1049D20001010101010101000000000000000000CE
:1049E20000000000010101010101010101000000BC
:1049F20001010101010100000000000000000000AF
:104A02000000010101010000000101010101010199
:104A12000000000000000000000000000001010191
:104A22000101010101010000000101010101010078
:104A3200000000000000000000010101010101016D
:104A42000101010101010101010101000000000059
:104A5200000000000000010101010101010101014A
:104A6200010101010101010100000000000000003C
:104A72000000010101010101010101010101010126
:104A8200010101010000000000000000000000011F
:104A92000101010101010101010101010101010104
:104AA20001000000000000000000000101010101FE
:104AB20001010101010101010101010101000000E7
:104AC20000000000000000000101010101010101DC
:104AD20001010101010101010101000000000000CA
:104AE20000000000010101010101010101010101B8
:104AF20001010101010100000000000000000000AE
:104B02000001010101010101010101010101010194
:104B1200010101000000000000000000000101018D
:104B22000101010101010101010101010101010074
:104B3200000000000000000000000101010101016D
:104B42000101010101010101010101010000000057
:104B52000000000000000101010101010101010149
:104B62000101010101010101010100000000000039
:104B72000000000000010101010101010101010128
:104B8200010101010101010100000000000000011A
:104B92000101010101010101010101010101010103
:104BA20001010100000000000000000000000101FE
:104BB20001010101010101010101010101010101E3
:104BC20001000000000000000101010101010101DA
:104BD20001010101010101010101010100000000C7
:104BE20000000000000000010101010101010101BA
:104BF20001010101010101010101000000000000A9
:104C02000001010101010101010101010101010193
:104C1200010101010100000000000000000000008D
:104C22000101010101010101010101010101010172
:104C32000101010000000000000001010101010169
:104C42000101010101010101010101010101000054
:104C5200000000000000000000010101010101014B
:104C62000101010101010101010101010000000036
:104C72000000000101010101010101010101010125
:104C8200010101010100000000000000000000001D
:104C92000101010101010101010101010101010102
:104CA20001010101010000000000000001010101F9
:104CB20001010101010101010101010101010000E4
:104CC20000000000000000000001010101010101DB
:104CD20001010101010101010101010101010000C4
:104CE20000000101010101010101010101010101B4
:104CF20001010101010101000000000000000000AB
:104D02000000010101010101010101010101010193
:104D12000101010101010100000000010101010185
:104D22000101010101010101010101010101010171
:104D3200000000000000000000000001010101016C
:104D42000101010101010101010101010101010151
:104D52000000000001010101010101010101010145
:104D62000000000000000000000000000000000041
:104D72000000000000000101010101010101010127
:104D82000101010101010101010000000001010115
:104D92000101010101010101010000000000000008
:104DA2000000000000000000000000000000000100
:104DB20001010101010101010101010101010101E1
:104DC20001010000000001010101010101010101D5
:104DD20001010101000000000000000000000000CD
:104DE20000000000000000000000000000010101BE
:104DF20001010101010101010101010000000001A5
:104E02000101010101010101010101010100000093
:104E12000000000000000000000000000000000090
:104E22000000000000000101010101010101010176
:104E32000101010100000000010101010101010164
:104E4200010101010101000000000000000000005A
:104E5200000000000000000000000000000000014F
:104E62000101010101010101010101010100000033
:104E72000001010101010101010101010101010121
:104E8200010000000000000000000000000000001F
:104E9200000000000000000000000000000101010D
:104EA20001010101010100000000010101010101F4
:104EB20001010101010101010101000000000000E6
:104EC20000000000000000000000000000000000E0
:104ED20000000000000001010101010101010100C7
:104EE20000000001010101010101010101010101B3
:104EF20001000000000000000000000000000000AF
:104F02000000000000000000000001010101010199
:104F12000101010101010101000000000101010183
:104F22000101010101010101010100000000000075
:104F3200000000000000000000000000000000006F
:104F42000000000101010101010101010101010152
:104F52000100000000010101010101010101010143
:104F6200010000000000000000000000000000003E
:104F72000000000000000001010101010101010126
:104F82000101010101010101010100000000010113
:104F92000101010101010101010100000000000005
:104FA20000000000000000000000000000000000FF
:104FB20001010101010101010101010101010101DF
:104FC20001010100000000010101010101010101D3
:104FD20001010100000000000000000000000000CC
:104FE20000000000000000000001010101010101B8
:104FF20001010101010101010101010100000000A3
:10500200010101010101010101010101010101018E
:105012000101010101000000000000000000000089
:10502200010101010101010101010101010101016E
:105032000101010101000000000101010101010162
:105042000101010101010101010101010101000050
:105052000000000000000000000101010101010147
:105062000101010101010101010101010101000030
:105072000000000000010101010101010101010123
:105082000101010101010100000000000000000017
:105092000000010101010101010101010101010100
:1050A20001010101010101000000000000000101F5
:1050B20001010101010101010101010101010101DE
:1050C20000000000000000000000000101010101D9
:1050D20001010101010101010101010101010101BE
:1050E20000000000000000010101010101010101B5
:1050F20001010101010101010101010000000000A3
:105102000000000000000101010101010101010193
:105112000101010101010101010000000000000084
:10512200010101010101010101010101010101016D
:105132000101010100000000000000000000000168
:10514200010101010101010101010101010101014D
:105152000101000000000000000101010101010144
:105162000101010101010101010101010100000030
:105172000000000000000000010101010101010125
:105182000101010101010101010101000000000012
:1051920000000101010101010101010101010101FF
:1051A20001010101010100000000000000000000F7
:1051B20000010101010101010101010101010101DE
:1051C20001010101000000000000000101010101D4
:1051D20001010101010101010101010101010100BE
:1051E20000000000000000000000010101010101B7
:1051F20001010101010101010101010101000000A0
:105202000000000001010101010101010101010190
:105212000101010101010000000000000000000086
:10522200000101010101010101010101010101016D
:105232000101010000000000000000000001010166
:10524200010101010101010101010101010101004D
:105252000000000000000000000001010101010146
:105262000101010101010101010101010000000030
:105272000000000000000101010101010101010122
:105282000101010101010101000000000000000014
:1052920000000001010101010101010101010101FF
:1052A20001010101010000000000000000000001F6
:1052B20001010101010101010101010101010101DC
:1052C20001000000000000000000000001010101D7
:1052D20001010101010101010101010101010000BE
:1052E20000000000000000000000010101010000B8
:1052F20000010101010101010000000000000000A5
:105302000000000000010101010101010101000092
:105312000001010101010100000000000000000085
:105322000000000101010100000001010101010171
:105332000100000000000000000000000000010168
:10534200010101010101010000000101010101014E
:105352000000000000000000000000000101010147
:105362000000000101010101010100000000000034
:105372000000000000000001010101010101010122
:105382000000000101010101010000000000000015
:105392000000000000010101010000000000000007
:1053A20000000000000000000000000000000000FB
:1053B20000000000000000000000000001010101E7
:1053C20000000000000000000000000000000101D9
:1053D20001010000000000000000000000000000C9
:1053E20000000000000000000000000000000000BB
:1053F20000000000000101010100000000000000A7
:105402000000000000000001010101010101000093
:10541200000000000000000000000000000000008A
:105422000000000000000000000000010101010175
:105432000101000000000000000000000000000068
:105442000101010101010100000000000000000053
:10545200000000000000000000000000000000004A
:105462000000000001010101010101000000000033
:105472000000000000000000000000010101010125
:105482000101000000000000000000000000000018
:105492000000000000000000000000010101010105
:1054A20001010101000000000000000000000000F6
:1054B20000000000010101010101010000000000E3
:1054C20000000000000000000000000000000000DA
:1054D20000000000010101010101010101000000C1
:1054E20000000000000000000000000000010101B7
:1054F20001010101000000000000000000000000A6
:105502000000000000000000000000000001010196
:105512000101010100000000000000000000000085
:105522000000000000000101010101010100000072
:105532000000000000000000000000000000000069
:105542000000000000000101010101010100000052
:105552000000000000000000000000000000000148
:105562000101010101010000000000000000000033
:105572000000000000000000000000000000000128
:105582000101010101010000000000000000000013
:105592000000000000000000000001010101010103
:1055A20001000000000000000000000000000000F8
:1055B20000000000000001010101010101000000E2
:1055C20000000000000000000000000000000000D9
:1055D20000000001010101010101000000000000C2
:1055E20000000000000000000000000000000001B8
:1055F20001010101010100000000000000000000A3
:105602000000000000000000000000000000000197
:105612000101010101010101000000000000000080
:10562200000000000001010101010101010101006E
:105632000000000000000000000000000000000068
:105642000000000000000000010101010101010150
:105652000100000000000000000000000000010145
:105662000101010101010101000000000000000030
:105672000000000000000000000000000000000028
:10568200000101010101010101010101000000000D
:1056920000000000000101010101010101010000FF
:1056A20000000000000000000000000000000000F8
:1056B20000000000000000000000010101010101E2
:1056C20001010101010000000000000000000101D1
:1056D20001010101010101000000000000000000C1
:1056E20000000000000000000000000000000000B8
:1056F200000000000001010101010101010101019D
:105702000101010101010101010101010101000089
:105712000000000000000000000000000000000087
:105722000000000000000000000000000000010175
:105732000101010101010101010101010101010157
:105742000101010101010100000000000000000050
:105752000000000000000000000000000000000047
:10576200000000000000000101010101010101012E
:105772000101010101010101010101010101010117
:105782000000000000000000000000000000000017
:105792000000000000000000000000000000000007
:1057A20000000101010101010101010101010101E9
:1057B20001010101010101000000000000000000E0
:1057C20000000000000000000000000000000000D7
:1057D20000000000000000000000000101010101C2
:1057E20001010101010101010101010101010101A7
:1057F20000000000000000000000000000000000A7
:105802000000000000000000000000000000000096
:105812000000000000000000000000010101010181
:105822000101000000000000000000000000000074
:105832000000000000000000000000000000000066
:105842000000000000000000000000000000000056
:10585200000000000101010101010100000000003F
:105862000000000000000000000000000000000036
:045872000000000032
:00000001FF
