:100000000C940C400C942D400C942D400C942D40DD
:100010000C942D400C942D400C942D400C942D40AC
:100020000C942D400C942D400C942D400C942D409C
:100030000C942D400C942D400C942D400C942D408C
:100040000C942D400C942D400C942D400C942D407C
:100050000C942D400C942D400C942D400C942D406C
:100060000C942D400C942D400C942D400C942D405C
:100070000C942D400C942D400C942D400C942D404C
:100080000C942D400C942D400C942D400C942D403C
:100090000C942D400C942D400C942D400C942D402C
:1000A0000C942D400C942D400C942D400C942D401C
:1000B0000C942D400C942D400C942D400C942D400C
:1000C0000C942D400C942D400C942D400C942D40FC
:1000D0000C942D400C942D400C942D400C942D40EC
:1000E0000C942D400C942D400C942D400C942D40DC
:1000F0000C942D400C942D400C942D400C942D40CC
:100100000C942D400C942D400C942D400C942D40BB
:100110000C942D400C942D400C942D400C942D40AB
:100120000C942D400C942D400C942D400C942D409B
:100130000C942D400C942D400C942D400C942D408B
:100140000C942D400C942D400C942D400C942D407B
:100150000C942D400C942D400C942D400C942D406B
:100160000C942D400C942D400C942D400C942D405B
:100170000C942D400C942D400C942D400C942D404B
:100180000C942D400C942D400C942D400C942D403B
:100190000C942D400C942D400C942D400C942D402B
:1001A0000C942D400C942D400C942D400C942D401B
:1001B0000C942D400C942D400C942D400C942D400B
:1001C0000C942D400C942D400C942D400C942D40FB
:1001D0000C942D400C942D400C942D400C942D40EB
:1001E0000C942D400C942D40054119413441484157
:1001F0005C4175418E41A941BD41D141E541F94183
:1002000012422D424E4269428442A342C242E3421C
:100210000443000000000000040401010101010189
:1002200001010101010101010101010101010101BE
:100230000101040404040404040404000000000098
:1002400000000000000000000000000000000004AA
:100250000404010101010101010101010101010188
:100260000101010101010101010101010104040475
:100270000404040000000000000000000000000072
:100280000000000000000000040401010101010160
:10029000010101010101010101010101010101014E
:1002A0000101010101010100000000000000000047
:1002B000000000000000000000000000000000003E
:1002C000040404010101040401010101010101010F
:1002D000010101010101010101010101010101010E
:1002E000010100000000000000000000000000000C
:1002F00000000000000000000404010104040404E4
:1003000004040404040101010101010101010101CE
:1003100001010101010101010101010100000000D1
:1003200000000000000000000000000000000000CD
:100330000004010404040404040404010101010193
:10034000010101010101010101010101010101019D
:100350000101010101010100000000000000000096
:100360000000000000000000000004040404040475
:100370000404040101010101010404040404010155
:10038000010101010101010101010101010101015D
:10039000010000000000000000000000000000005C
:1003A0000000040404040404040404040101010121
:1003B0000104040404040404040101010101010115
:1003C0000101010101010101010101010100000020
:1003D0000000000000000000000000040404040409
:1003E00004040404040101010101040404040404DC
:1003F00004040101010101010101010101010101E7
:1004000001010101010100000000000000000000E6
:1004100000000000040404040404040404040404AC
:1004200004040404040404010101010101010101A7
:1004300001010101010101010101010101010101AC
:10044000010000000000000000000000000404049F
:10045000040404040404040404040404040404045C
:100460000404040404040404040101010101010161
:10047000010101010101010101010101010101016C
:10048000010101010004040404040404040404043C
:10049000040404040404040404040404040404041C
:1004A0000404040401010101010101010101010130
:1004B0000101010101010101010101010000040428
:1004C00004040404040404040404040404040404EC
:1004D00004040404040404040404040404040101E2
:1004E00001010101010101010101010101010101FC
:1004F00001010101000000040404040404040404D4
:1005000004040404040404040404040404040404AB
:1005100004040404040404040401010101010101B0
:1005200001010101010101010101010100000000BF
:10053000040404040404040404040404040404047B
:100540000404040404040404040404040404010171
:100550000404040101010101010101010101010182
:10056000010101010100000000010404040404046D
:10057000040404040404040404040404040404043B
:100580000404040101010101010101010101010152
:10059000010101010101010101010101010000004E
:1005A0000000010104040404040404040404040419
:1005B000040404040404040404040401010101010A
:1005C000010101010101010101010101010101011B
:1005D0000101010100000000000000040104040406
:1005E00004040404040404040404040404040404CB
:1005F00004010101010101010101010101010101E8
:1006000001010101010101010101010100000000DE
:1006100000000000040104040404040404040404AD
:10062000040404040404040404040101010101019C
:1006300001010101010101010101010101010101AA
:10064000010101010100000000000000000404019C
:10065000040404040404040404040404040404045A
:100660000404010101010101010101010101010174
:10067000010101010101010101010101010000006D
:10068000000000000000000401010404040404044C
:10069000040404040404040404010101010101012F
:1006A000010101010101010101010101010101013A
:1006B0000101010101000000000000000000000035
:1006C00004040101010404040404040404040404F3
:1006D0000401010101010101010101010101010107
:1006E00001010101010101010101010101000000FD
:1006F00000000000000000000000000401010101F2
:1007000004040404040404010101010101010101C4
:1007100001010101010101010101010101010101C9
:1007200001010101010000000000000000000000C4
:1007300000000000000404010101010101010101A8
:100740000101010101010101010101010101010199
:10075000010101010101010101010101000000008D
:100760000000000000000000000000000000040481
:100770000401010101010101010101010101010166
:100780000101010101010101010101010101010159
:100790000101000000000000000000000000000057
:1007A000000000000000000000040401010101013C
:1007B0000101010101010101010101010101010129
:1007C0000101010101010101010000000000000020
:1007D0000000000000000000000000000000000019
:1007E00000000004040101010101010101010101F6
:1007F00001010101010101010100000000000000F0
:1008000000000000000000000000000000000000E8
:1008100000000000000000000000000000040404CC
:1008200001010101010101010101010101010101B8
:1008300001010101010000000000000000000000B3
:1008400000000000000000000000000000000000A8
:100850000000000000000404040101010101010185
:10086000010101010101010101010101010100007A
:100870000000000000000000000000000000000078
:100880000000000000000000000000000000000068
:10089000040404040101010101010101010101013C
:1008A0000101010101010000000000000000000042
:1008B0000000000000000000000000000000000038
:1008C0000000000000000000000004040404040113
:1008D000010101010101010101010101010000000B
:1008E0000000000000000000000000000000000008
:1008F00000000000000000000000000000000000F8
:1009000000000000040404040404040401010101C3
:1009100001010100000000000000000000000000D4
:1009200000000000000000000000000000000000C7
:1009300000000000000000000000000404040404A3
:10094000040404040404040000000000000000008B
:100950000000000000000000000000000000000097
:100960000000000000000000000000000000000087
:100970000000040404040404040404040404040043
:100980000000000000000000000000000000000067
:100990000000000000000000000000000000000057
:1009A000000000000000000000000404040404042F
:1009B0000404040404040404040404040000000007
:1009C0000000000000000000000000000000000027
:1009D0000000000000000000000000000000000017
:1009E00000040404040401010101010101010104E6
:1009F00004040404040400000000000000000000DF
:100A000000000000000000000000000000000000E6
:100A100000000000000000000004040404010101C3
:100A200001010101010101010101010404040404A7
:100A300004000000000000000000000000000000B2
:100A400000000000000000000000000000000000A6
:100A5000000004040404010101010101010101017C
:100A6000010101010404040404040000000000006A
:100A70000000000000000000000000000000000076
:100A8000000000000000000000000004010101015E
:100A90000101010101010101010101010101010146
:100AA0000404040400000000000000000000000036
:100AB0000000000000000000000000000000000036
:100AC0000000000401010101010101010101010116
:100AD00001010101010101010101040404040000FC
:100AE0000000000000000000000000000000000006
:100AF00000000000000000000000000004010101EF
:100B000001040101010101010101010101010101D2
:100B100001010101010404040000000000000000C4
:100B200000000000000000000000000000000000C5
:100B3000000000000401040404040404040404018B
:100B40000101010101010101010101010101010492
:100B5000040400000000000000000000000000008D
:100B6000000000000000000000000000000104047C
:100B7000040404040404040404010101010101014A
:100B8000010101010101010101010404040400004B
:100B90000000000000000000000000000000000055
:100BA000000000000000040404040404040404041D
:100BB0000404040404010101010101010101010116
:100BC0000101010104040404040400000000000009
:100BD000000000000000000000000000000004040D
:100BE00004040404040404040404040404040401C8
:100BF00001010101010101010101010101010101E5
:100C000000000000000000000000000000000000E4
:100C100000000000000000040404040404040404B0
:100C20000404040404040404040101010101010199
:100C300001010101010101010101000000000000AA
:100C400000000000000000000000000000000000A4
:100C50000404040404040404040404040404040454
:100C6000040404010101010101010101010101016B
:100C7000010101010101000000000000000100006D
:100C80000000000000000000000404040404040448
:100C90000404040404040404040404040101010120
:100CA0000101010101010101010101010101010035
:100CB0000000000000000100000000000000000033
:100CC00000000404040404040404040404040404EC
:100CD00004040404040404010101010101010101EF
:100CE00001010101010101010101010101010101F4
:100CF00000000000000000000000000404040404E0
:100D000004040404040404040404040404040404A3
:100D100004010101010101010101010101010101C0
:100D200001010101010101000000000000000000BC
:100D30000000000000040404040404040404040487
:100D4000040404040404040401010101010101017B
:100D50000101010101010101010101010100000086
:100D6000000000000000000000000000000004047B
:100D70000404040404040404040404040404040433
:100D80000101010101010101010101010101010153
:100D90000000000000000000000000000000000053
:100DA000000000000000000404040404040404041F
:100DB000040404040404040101010101010101010E
:100DC000010101010000000000000000000000001F
:100DD0000000000000000000000000000000000013
:100DE00004010404040404040404040404040101CC
:100DF00001010101010101010101000000000000E9
:100E000000000000000000000000000000000000E2
:100E100000000000000000000000010101010104C9
:100E200004040401010101010101010101010101A9
:100E300001010000000000000000000000000000B0
:100E400000000000000000000000000000000000A2
:100E50000000000401010101010101010101010182
:100E60000101010101010101010101010000000076
:100E70000000000000000000000000000000000072
:100E8000000000000000000000000000000401015C
:100E90000101010101010101010101010101010142
:100EA0000000000000000000000000000000000042
:100EB0000000000000000000000000000000000032
:100EC0000000000000000401010101010101010115
:100ED0000101010101010101010000000000000009
:100EE0000000000000000000000000000000000002
:100EF00000000000000000000000000000000000F2
:100F000004040101010101010101010101010100CC
:100F100000000000000000000000000000000000D1
:100F200000000000000000000000000000000000C1
:100F300000000000000000000000000404040101A3
:100F4000010101010000000000000000000000009D
:100F50000000000000000000000000000000000091
:100F60000000000000000000000000000000000081
:100F70000000000000000000000000000000000071
:100F80000000000000000000000000000000000061
:1022E00000000000000004040404040404000000D2
:1022F00000000000000000000000000000000000DE
:1023000000000000000000000000000000000000CD
:1023100000000000000000000000000000000004B9
:102320000404040404040000000000000000000095
:10233000000000000000000000000000000000009D
:10234000000000000000000000000000000000008D
:102350000004040404040404040404040404040441
:102360000404040404040000000000000000000055
:10237000000000000000000000000000000000005D
:102380000000000000000000000004040404040435
:102390000404040404040404040404040404040001
:1023A000000000000000000000000000000000002D
:1023B000000000000000000000000000000000001D
:1023C00000040404040404040404040404040404D1
:1023D00004040404040404040404000000000000D5
:1023E00000000000000000000000000000000000ED
:1023F00000000000000000000000040404040404C5
:10240000040404040404040404040404040404048C
:1024100004040400000000000000000000000000B0
:1024200000000000000000000000000000000000AC
:102430000004040404040404040404040000000070
:102440000000000000040404040404040404000068
:10245000000000000000000000000000000000007C
:102460000000000000000000000004040404040454
:102470000404040404000000000000000000040440
:102480000404040404040400000000000000000030
:10249000000000000000000000000000000000003C
:1024A0000000000404040404040404040404000000
:1024B00000000000000000040404040404040404F8
:1024C000000000000000000000000000000000000C
:1024D00000000000000000000000000004040404EC
:1024E00004040404040000000000000000000000D8
:1024F00000000404040404040404040400000000B4
:1025000000000000000000000000000000000000CB
:102510000000000000040404040404040404000097
:102520000000000000000000000000040404040497
:102530000404040404000000000000000000000087
:102540000000000000000000000000040404040477
:102550000404000000000000000000000000000073
:10256000000000000000000404040404040400004F
:10257000000000000000000000000000000000005B
:10258000000000000404040404040400000000002F
:10259000000000000000000000000000000000003B
:1025A000040404040404040000000000000000000F
:1025B0000000000000000000000000040404040407
:1025C0000404000000000000000000000000000003
:1025D00000000000000000000000000404040404E7
:1025E00004040000000000000000000000000000E3
:1025F00000000000040404040404040000000000BF
:1026000000000000000000000000000000000000CA
:10261000000000000404040404040400000000009E
:10262000000000000000000000000000000404049E
:10263000040404040000000000000000000000008A
:10264000000000000000000000000000000404047E
:10265000040404040000000000000000000000006A
:10266000000000000000040404040404040000004E
:10267000000000000000000000000000000000005A
:102680000000000000000404040404040404040026
:102690000000000000000000000000000000000436
:1026A0000404040404040000000000000000000012
:1026B0000000000000000000000000000000000416
:1026C00004040404040404040000000000000000EA
:1026D00000000000000004040404040404000000DE
:1026E00000000000000000000000000000000000EA
:1026F00000000000000000000000040404040404C2
:1027000004000000000000000000000000000004C1
:1027100004040404040400000000000000000000A1
:1027200000000000000000000000000000000000A9
:10273000000000040404040404040000000000007D
:102740000000000000000000040404040000000079
:102750000000000000000000000000000000000079
:102760000000000000000000000000000000000465
:10277000040404000000000000000000000000004D
:102780000004040404000000000000000000000039
:102790000000000000000000000000000000000039
:1027A0000000000000000000040404040000000019
:1027B0000000000000000000000004040404000009
:1027C00000040404040404040000000000000000ED
:1027D00000000000000404040404040404040000D5
:1027E00000040404040404000000000000000000D1
:1027F00000000004040404000000040404040404B1
:1028000004000000000000000000000000000404BC
:102810000404040404040400000004040404040484
:102820000000000000000000000000000404040498
:10283000000000040404040404040000000000007C
:102840000000000000000004040404040404040464
:102850000000000404040404040000000000000060
:102860000000000404040404040404040404040434
:102870000404040404000000000000000000000044
:102880000404040404040404040404040404040408
:102890000404000000000000000000000404040420
:1028A00004040404040404040404040404040000F0
:1028B00000000000000000000004040404040404FC
:1028C00004040404040404040404040000000000DC
:1028D00000000000000404040404040404040404CC
:1028E00004040404040404000000000000000000CC
:1028F00000000404040404040404040404040404A0
:1029000004040404000000000000000000000404AF
:102910000404040404040404040404040404040477
:102920000000000000000000000000040404040493
:102930000404040404040404040404040400000063
:102940000000000000000004040404040404040463
:10295000040404040404040404040400000000004B
:10296000000000000000040404040404040404043F
:102970000404040404040404040000000000000033
:102980000404040404040404040404040404040407
:102990000404040400000000000000000000000423
:1029A00004040404040404040404040404040404E7
:1029B00004040000000000000004040404040404F3
:1029C00004040404040404040404040404000000D3
:1029D00000000000000000000404040404040404D7
:1029E00004040404040404040404040000000000BB
:1029F000000004040404040404040404040404049F
:102A000004040404040400000000000000000000AE
:102A1000000404040404040404040404040404047A
:102A20000404040400000000000000040404040482
:102A3000040404040404040404040404040404005A
:102A4000000000000000000000000404040404046E
:102A50000404040404040404040404040400000042
:102A60000000000004040404040404040404040436
:102A7000040404040404000000000000000000003E
:102A8000000404040404040404040404040404040A
:102A90000404040404040000000000000004040412
:102AA00004040404040404040404040404040400EA
:102AB00000000000000000000000040404040404FE
:102AC00004040404040404040404040404040400CA
:102AD00000000004040404040404040404040404C2
:102AE00004040404040404040000000000000000C6
:102AF00000000004040404040404040404040404A2
:102B00000404040404040404000000000404040495
:102B10000404040404040404040404040404040475
:102B20000400000000000000000000000404040491
:102B30000404040404040404040404040404040455
:102B40000400000000040404040404040404040455
:102B50000400000000000000000000000000000071
:102B60000000000000000004040404040404040441
:102B70000404040404040404040400000000040425
:102B8000040404040404040404040000000000001D
:102B90000000000000000000000000000000000035
:102BA00004040404040404040404040404040404E5
:102BB00004040400000000040404040404040404E5
:102BC00004040400000000000000000000000000F9
:102BD00000000000000000000004040404040404D9
:102BE00004040404040404040404040400000000B5
:102BF000040404040404040404040404040400009D
:102C000000000000000000000000000000000000C4
:102C10000000000000000004040404040404040490
:102C20000404040404000000000404040404040474
:102C30000404040404040400000000000000000078
:102C40000000000000000000000000000000000084
:102C5000040404040404040404040404040400003C
:102C6000000004040404040404040404040404042C
:102C7000040400000000000000000000000000004C
:102C8000000000000000000000000000000004043C
:102C90000404040404040400000000040404040404
:102CA00004040404040404040404040000000000F8
:102CB0000000000000000000000000000000000014
:102CC00000000000000000040404040404040404E0
:102CD00000000000040404040404040404040404C4
:102CE00004040000000000000000000000000000DC
:102CF00000000000000000000000000404040404C0
:102D00000404040404040404040000000004040493
:102D10000404040404040404040404000000000087
:102D200000000000000000000000000000000000A3
:102D30000000000004040404040404040404040463
:102D40000404000000000404040404040404040453
:102D5000040400000000000000000000000000006B
:102D60000000000000000000040404040404040443
:102D70000404040404040404040404000000000423
:102D80000404040404040404040404000000000017
:102D90000000000000000000000000000000000033
:102DA00000040404040404040404040404040404E7
:102DB00004040404000000000404040404040404E3
:102DC00004040404000000000000000000000000F3
:102DD00000000000000000000000040404040404DB
:102DE00004040404040404040404040404000000AF
:102DF0000004040404040404040404040404040497
:102E000004040404040400000000000000000000AA
:102E10000004040404040404040404040404040476
:102E20000404040404040000000004040404040472
:102E30000404040404040404040404040404040056
:102E4000000000000000000000000404040404046A
:102E50000404040404040404040404040404040036
:102E6000000000000000040404040404040404043A
:102E70000404040404040404000000000000000032
:102E8000000000040404040404040404040404040E
:102E9000040404040404040400000000000000040E
:102EA00004040404040404040404040404040404E2
:102EB00004000000000000000000000004040404FE
:102EC00004040404040404040404040404040404C2
:102ED00004000000000000000404040404040404CE
:102EE00004040404040404040404040400000000B2
:102EF00000000000000000040404040404040404AE
:102F00000404040404040404040400000000000099
:102F10000004040404040404040404040404040475
:102F2000040404040400000000000000000000008D
:102F30000404040404040404040404040404040451
:102F4000040404000000000000000404040404045D
:102F50000404040404040404040404040404000039
:102F60000000000000000000000404040404040445
:102F70000404040404040404040404040000000021
:102F8000000000040404040404040404040404040D
:102F90000404040404040400000000000000000015
:102FA00000000404040404040404040404040404E9
:102FB00004040404040000000000000004040404ED
:102FC00004040404040404040404040404040404C1
:102FD00000000000000000000000000404040404DD
:102FE00004040404040404040404040404040000A9
:102FF00000000000000404040404040404040404A5
:1030000004040404040404000000000000000000A4
:103010000000040404040404040404040404040478
:103020000404040400000000000000000000040488
:103030000404040404040404040404040404040450
:10304000000000000000000000000004040404046C
:10305000040404040404040404040404040000003C
:10306000000000000000000404040404040404043C
:10307000040404040404040404000000000000002C
:103080000000000004040404040404040404040410
:103090000404040404040000000000000000000018
:1030A00004040404040404040404040404040404E0
:1030B00004040000000000000000000000040404FC
:1030C00004040404040404040404040404040400C4
:1030D00000000000000000000000000404040400E0
:1030E00000000404040404040400000000000000C4
:1030F00000000000000004040404040404040400AC
:1031000000000404040404040000000000000000A7
:10311000000000000404040400000004040404048B
:103120000404000000000000000000000000000493
:10313000040404040404040400000004040404045B
:10314000040000000000000000000000000404046F
:10315000040000000404040404040400000000004F
:10316000000000000000000004040404040404043F
:103170000400000004040404040400000000000033
:10318000000000000000040404040000000000002F
:10319000000000000000000000000000000000002F
:1031A0000000000000000000000000000004040413
:1031B0000400000000000000000000000000000407
:1031C00004040400000000000000000000000000F3
:1031D00000000000000000000000000000000000EF
:1031E00000000000000004040404000000000000CF
:1031F00000000000000000000404040404040400B3
:1032000000000000000000000000000000000000BE
:10321000000000000000000000000000040404049E
:103220000404040000000000000000000000000092
:103230000004040404040404000000000000000072
:10324000000000000000000000000000000000007E
:103250000000000000040404040404040000000052
:10326000000000000000000000000000040404044E
:103270000404040000000000000000000000000042
:10328000000000000000000000000000040404042E
:10329000040404040400000000000000000000001A
:1032A0000000000000040404040404040000000002
:1032B000000000000000000000000000000000000E
:1032C00000000000000404040404040404040000DA
:1032D00000000000000000000000000000000404E6
:1032E00004040404040000000000000000000000CA
:1032F00000000000000000000000000000000404C6
:1033000004040404040000000000000000000000A9
:103310000000000000000004040404040404000091
:10332000000000000000000000000000000000009D
:103330000000000000000004040404040404000071
:10334000000000000000000000000000000000007D
:103350000404040404040400000000000000000051
:10336000000000000000000000000000000000005D
:103370000404040404040400000000000000000031
:103380000000000000000000000000040404040429
:103390000404000000000000000000000000000025
:1033A0000000000000000004040404040404000001
:1033B000000000000000000000000000000000000D
:1033C00000000000040404040404040000000000E1
:1033D00000000000000000000000000000000000ED
:1033E00004040404040404000000000000000000C1
:1033F00000000000000000000000000000000000CD
:103400000404040404040404040000000000000098
:103410000000000000000404040404040404040484
:10342000000000000000000000000000000000009C
:103430000000000000000000000404040404040470
:103440000404000000000000000000000000000470
:103450000404040404040404040000000000000048
:10346000000000000000000000000000000000005C
:103470000000040404040404040404040400000020
:103480000000000000000404040404040404040018
:10349000000000000000000000000000000000002C
:1034A0000000000000000000000000040404040408
:1034B00004040404040400000000000000000004F0
:1034C00004040404040404040000000000000000DC
:1034D00000000000000000000000000000000000EC
:1034E00000000000040404040404040404040400B0
:1034F00000000000000000000404040404040404AC
:1035000004000000000000000000000000000000B7
:1035100000000000000000000000000000000004A7
:10352000040404040404040404040404040404045B
:10353000040404040404040400000000000000006B
:10354000000000000000000000000000000000007B
:10355000000000000000000004040404040404044B
:10356000040404040404040404040404040404041B
:103570000400000000000000000000000000000047
:10358000000000000000000000000000000000003B
:1035900000000004040404040404040404040404F7
:1035A00004040404040404040000000000000000FB
:1035B000000000000000000000000000000000000B
:1035C00000000000000000000000000004040404EB
:1035D00004040404040404040404040404040404AB
:1035E00004000000000000000000000000000000D7
:1035F00000000000000000000000000000000000CB
:1036000000000000000000000000000004040404AA
:10361000040404000000000000000000000000009E
:10362000000000000000000000000000000000009A
:10363000000000000000000000000000000000008A
:10364000000000000004040404040404000000005E
:10365000000000000000000000000000000000006A
:10366000000000000000000000000000000000005A
:10367000000000000000000000000000000000004A
:10368000000000000000000000000000000000003A
:1049C00000000000020202020200000000040404D1
:1049D00004040404000000000000000000020202C1
:1049E00002020202020202020202020202020202A7
:1049F0000202020202020202020202020202020297
:104A00000202000000000404040404040400000086
:104A10000000000000000202020202020202020282
:104A20000202020202020202020202020202020266
:104A3000020202020202020200000000000404045A
:104A4000040404040404040404040400000000003A
:104A50000000000000000202020202020202020242
:104A60000202020202020202020202020202020226
:104A7000020000000000040404040404040404040C
:104A80000404040400000000000000000000000214
:104A900002020202020202020202020202020202F6
:104AA00002020202020202020202000000000004EE
:104AB00004040404040404040404040404000000C2
:104AC00000000000000000000202020202020202D6
:104AD00002020202020202020202020202020202B6
:104AE000020000000000040404040404040404049C
:104AF000040404040404040404040000000000008E
:104B00000000000000000000020202020202020295
:104B1000020202020202020202020000000000047D
:104B20000404040404040404040404040404040445
:104B30000404040000000000000000000000000069
:104B40000002020202020202020202020202020247
:104B50000202020000000000040404040404000037
:104B60000000000000040404040404040404040419
:104B7000040000000000000000000000000002022D
:104B8000020202020202020202020202000000000D
:104B900000040404040404000000000000000404F5
:104BA00004040404040404040404000000000000DD
:104BB00000000000000000020202020202020202E3
:104BC00002020202020000040404040404040404B7
:104BD00000000000000000000000000004040404C5
:104BE00004040404040404000000000000000000A9
:104BF000000000020202020202020202020200009F
:104C00000404040404040404040000000000000080
:104C10000000000000040404040404040404040468
:104C2000000000000000000000000000020202027C
:104C3000020202020202020000040404040404044A
:104C40000000000000070707070000000000000048
:104C50000000040404040404040404040404000024
:104C60000000000000000002020202020202020232
:104C7000000004040404040404000000000007070A
:104C80000707000000000000000000040404040402
:104C900004040404040404000000000000000000F8
:104CA00002020202020202020200000404040404DE
:104CB00004040000000000070707070000000000D0
:104CC00000000000040404040404040404040404B4
:104CD00000000000000000000002020202020202C6
:104CE00002020000040404040404040000000000A4
:104CF0000707070707070700000000000000000083
:104D0000040404040404040404040404040000006F
:104D1000000000000000020202020200000404047D
:104D20000404040400000000000707070707070742
:104D30000000000000000000000404040404040457
:104D40000404040404040000000000000000000249
:104D5000020202020000040404040404040000002F
:104D600000000707070707070707070707000000F6
:104D7000000000000000040404040404040404040B
:104D80000404000000000000000000000000000417
:104D900004040404040400000000000707070707D8
:104DA00007070707070700000000000000000004D5
:104DB00004040404040404040404040000000000C7
:104DC00000000000000004040404040404000000C7
:104DD000000000000707070707070707070707077F
:104DE00007000000000000000000000000040404B0
:104DF000040404040404040400000000000000048F
:104E00000404040404040000000000000007070775
:104E1000070707070707070707070000000000004C
:104E2000000000000000040404040404040404045A
:104E30000400000000000000040404040404040052
:104E4000000000000000070707070707070707071C
:104E50000707070000000000000000000000000439
:104E6000040404040404040404040000000000001A
:104E700000040404040404040000000007070707FA
:104E800007070707070707070707070707070707B2
:104E900007000000000000000000000004040404FB
:104EA00004040404040404040404040404040404C2
:104EB00004000000000707070707070707070707A1
:104EC000070707070707070707070000000000009C
:104ED00000000000000404040404040404040404A6
:104EE000040404040404040404040000000007078C
:104EF0000707070707070707070707070707070742
:104F0000070707070707070707070000000000005B
:104F10000004040404040404040404040404040455
:104F20000404040000000007070707070707070736
:104F30000707070707070707070707070707070701
:104F40000707070000000000000004040404040434
:104F50000404040404040404040404040000000021
:104F600007070707070707070707070707070707D1
:104F700007070707070707070707070707070000CF
:104F800000000000000000040404040404040404FD
:104F900004040404040000000007070707070707CC
:104FA0000707070707070707070707070707070791
:104FB00007070707070707000000000000000000C0
:104FC00004040404040404040404040404040000A9
:104FD000000007070707070707070707070707076F
:104FE0000707070707070707070707070707070751
:104FF0000707000000000000000404040404040487
:105000000404040404040400000000070707070761
:105010000707070707070707070707070707070720
:105020000707070707070707070707000000000033
:105030000000040404040404040404040404040438
:10504000000000000707070707070707070707070C
:1050500007070707070707070707070707070707E0
:105060000707070700000000000000040404040410
:1050700004040404040404040400000000070707F7
:1050800007070707070707070707070707070707B0
:1050900007070707070707070707070000000000C3
:1050A00000000000040404040404040404040404D0
:1050B00004040000000007070707070707070707A2
:1050C0000707070707070707070707070707070770
:1050D00007070707000000000000000000040404A8
:1050E000040404040404040404040400000000078D
:1050F0000707070707070707070707070707070740
:105100000707070707070707070707000000000052
:105110000000040404040404040404040404040457
:105120000404040400000000070707070707070737
:1051300007070707070707070707070707070707FF
:10514000070707070000000000000004040404042F
:10515000040404040404040404040404040000001B
:1051600000070707070707070707070707070707D6
:1051700007070707070707070000000000000000F7
:1051800000040404040404040404040404040404E3
:1051900004040404040400000000070707070707CD
:1051A000070707070707070707070707070707078F
:1051B00007000000000000000000040404040404D0
:1051C00004040404040404040404040404040400A3
:1051D0000000000707070707070707070707070774
:1051E0000707070707070707070700000000000079
:1051F000000000040404040404040404040404047B
:105200000400000404040404040400000000000777
:105210000707070707070707070707070707070025
:10522000000000000000000004040404040404045E
:10523000040404040400000000000000040404044A
:10524000040404000000000007070707070707071A
:105250000707070707070707000000000000000016
:10526000000404040404040404040404040400000A
:105270000000000000040404040404040000000012
:1052800000070707070707070707070700000000D1
:1052900000000000000404040404040404040404E2
:1052A00004040400000000000000000000000404EA
:1052B00004040404040000000000070707070707B0
:1052C00007070707070000000000000000000404B3
:1052D000040404040404040404040404000000009E
:1052E00000000000000000040404040404040000A2
:1052F000000000070707070707070000000000007D
:105300000000000404040404040404040404040469
:10531000000000000000000000000000000000008D
:105320000404040404040400000000000707070745
:105330000707070000000000000000000404040448
:105340000404040404040404040000000000000039
:105350000000000000000000000404040404040431
:10536000000000000000000000000000000000003D
:1053700004040404040404040404040404040000F5
:10538000000000000000000000020202020202020F
:1053900000000404040404040400000000000000F1
:1053A00000000000000000000004040404040404E1
:1053B00004040404040404000000000000000000D1
:1053C00000000202020202020200000404040404BB
:1053D00004040000000000000000000000000000C5
:1053E0000000040404040404040404040404040485
:1053F00000000000000000000000000202020202A3
:105400000202000004040404040404040400000074
:10541000000000000404040404040404040404045C
:105420000404000000000000000000000000000074
:10543000020202020202020202020200000404044A
:105440000404040404040000000000000004040438
:105450000404040404040404040404000000000020
:10546000000000000000000000020202020202022E
:105470000202020200000000000404040404040408
:1054800004040404040404040404040404040400E0
:105490000000000000000000000000020202020202
:1054A00002020202020202020202020202000000E2
:1054B00000000404040404040404040404040404B4
:1054C00004040404040404040000000000000000BC
:1054D00000000000020202020202020202020202B4
:1054E00002020202020202020000000000040404A0
:1054F0000404040404040404040404040400000078
:105500000000000000000202020202020202020287
:10551000020202020202020202020202020202026B
:105520000200000000000404040404040404040451
:105530000404040404040000000000000000000251
:10554000020202020202020202020202020202023B
:105550000202020202020202020200000000000433
:1055600004040404040404040404040404040400FF
:10557000000000000000000002020202020202021B
:1055800002020202020202020202020202020202FB
:1055900002020200000000000000040404040404ED
:1055A00004000000000000000000000002020202EF
:1055B00002020202020202020202020202020202CB
:1055C00002020202020202020202020200000000C3
:1055D00000000004040404040404000000000000AF
:1055E00000000000000202020202020202020202A5
:1055F000020202020202020202020202020202028B
:10560000020202020202020200000000000000008A
:10561000000000000000000000000202020202027E
:10562000020202020202020202020202020202025A
:10563000020202020202020202020202020202024A
:105640000200000000000000000000000000000058
:105650000000000202020202020202020202020230
:10566000020202020202020202020202020202021A
:10567000020202020202020202020202020200000E
:105680000000000000000002020202020202020208
:1056900002020202020202020202020202020202EA
:1056A00002020202020202020202020202020202DA
:1056B00002020202020202000000000000000000DC
:1056C00002020202020202020202020202020202BA
:1056D00002020202020202020202020202020202AA
:1056E000020202020202020202020202020202029A
:1056F000020202020202020202020202020202028A
:105700000202020202020202020202020202020279
:105710000202020202020202020202020202020269
:105720000202020202020202020202020202020259
:105730000202020202020202020202020202020249
:105740000202020202020202020202020202020239
:105750000202020202020202020202020202020229
:105760000202020202020202020202020202020219
:105770000202020202020202020202020202020209
:1057800002020202020202020202020202020202F9
:1057900002020202020202020202020202020202E9
:1057A00002020202020202020202020202020202D9
:1057B00002020202020202020202020202020202C9
:1057C00002020202020202020202020202020202B9
:1057D00002020202020202020202020202020202A9
:1057E0000202020202020202020202020202020299
:1057F0000202020202020202020202020202020289
:105800000202020200000000000000000000000090
:105810000000000303030300000000070707070759
:105820000707070707000000030303030303000043
:105830000000000000000000000000000000000068
:10584000000000000000000000000303030300004C
:1058500007070707070707070707070707070707D8
:105860000700000003030303030000000000000022
:105870000000000000000000000000000000000028
:1058800003030303030000070707070707070707CA
:1058900007070707070707070707070707000000AD
:1058A00003030303000000000000000000000000EC
:1058B00000000000000000000303030300000707CE
:1058C0000707070707070707070707070707070768
:1058D000070707070707070707000303030300007D
:1058E00000000000000000000000000000000000B8
:1058F000000303030300000707070707070707075D
:105900000707070707070707070707070707070727
:10591000070700030303030000000000000000006D
:105920000000000000000000000303030000070760
:10593000070707070707070707070000000000071A
:105940000707070707070707070707070000000300
:105950000303000000000000000000000000000041
:1059600000030303000707070707070707070707E1
:1059700000000003030303030000000007070707FC
:1059800007070707070707070003030300000000D6
:1059900000000000000000000003030300070707E9
:1059A00007070707070707070707070000030303A1
:1059B00003030303030000000007070707070707A7
:1059C00007070003030300000000000000000000C0
:1059D0000003030300070707070707070707070771
:1059E0000707070707070000000303030303030378
:1059F0000303000007070707070707070003030360
:105A00000000000000000000030303030007070775
:105A10000707070707070707070707070707070716
:105A20000707000003030303030303030300000746
:105A30000707070707070003030303000000000030
:105A4000030303030007070707070707000007070B
:105A500007070707070707070707070707000003E8
:105A600003030303030303030007070707070707ED
:105A700000030303030000000303030300070707F9
:105A800007070707000303000000070707070707CA
:105A900007070707070707070000030303030303BC
:105AA00003030007070707070707000303030000B6
:105AB00000030303030007070707070707000303A3
:105AC000000000070707070707070707070707077B
:105AD000070000030303030303030300070707078B
:105AE0000707070003030300000003030000070784
:105AF0000707070700000303030303030000000771
:105B0000070707070707070707070707000000033E
:105B10000303030303000007070707070700000349
:105B20000300030300070707070707070003030332
:105B30000303030303030303000007070707070723
:105B4000070707070707070700000303030303030B
:105B50000007070707070000030300030300070708
:105B600007070707000303030303030303030303F8
:105B700003030300000707070707070707070707CF
:105B800007070700000303030303000707070707CE
:105B900007000303030007070707070700000303C5
:105BA00003030303030303030303030303030000CB
:105BB000000707070707070707070707070700008A
:105BC0000303030007070707070700030303000792
:105BD0000707070707070700000003030303030382
:105BE000030303030303030303030000070707077B
:105BF0000707070707070707070000000300070755
:105C00000707070703030007070707070707070733
:105C1000070707000003030303030303030303034E
:105C20000303030303000007070707070707070726
:105C30000707070707000007070707070700030014
:105C400007070707070707070707070707070000F2
:105C50000303030303030303030303030303030314
:105C600000000707070707070707070707070700D9
:105C700000070707070700030007070707070707CD
:105C800007070707070707070700000303030303C6
:105C900003030303030303030303030000000007DC
:105CA0000707070707070707070707070707070784
:105CB000030007070707070707070707070707077F
:105CC00007070000030303030303030303030303A2
:105CD0000303030300000000070707070707070780
:105CE0000707070707070707070307070707070748
:105CF0000707070707070707070707070700000049
:105D00000003030303030303030303030000000072
:105D10000707070707070707070707070707070713
:105D20000707000707070707070007070707070711
:105D3000070707070707070707070003030303030E
:105D400003030300000707070707070707070707FD
:105D500007070707000007070707070007070707E8
:105D600007000300000007070707070707070707E3
:105D700007070707000003030303000007070707DF
:105D800007070707070707070707070000030007BC
:105D900007070707070707070707000303030000B4
:105DA0000000070707070707070707070707070098
:105DB0000303000707070707070707070707070782
:105DC0000000000003030300070707070707070792
:105DD000070707000303030303030300000007078B
:105DE0000707070707070707070000070707070751
:105DF000070707070707070000030303030303035D
:105E0000000707070707070707070707000303033C
:105E1000030303030303030000070707070707073C
:105E20000707000007070707070707070700000025
:105E3000030303030303030303000707070707071D
:105E40000707070707000303030303030303030311
:105E50000300000000070707070707000007070700
:105E600007070700000003030303030303030303FF
:105E700003030007070707070707070707070003CC
:105E800003030303030303030303000000000707E6
:105E900007070707000007070707070700000003B9
:105EA00003030303030303030303030007070707B5
:105EB0000707070707070700030303030303030399
:105EC0000300000007070707070707070700000789
:105ED000070707070707070700000003030303037B
:105EE0000303030300070707070707070707070759
:105EF0000003030303030303000007070707070763
:105F0000070707070707000007070707070707072F
:105F10000707070700000303030303030300070742
:105F20000707070707070707070003030303000026
:105F30000007070707070707070707070707000303
:105F400003000707070707070707070707070700F3
:105F500000000003030300070707070707070707F9
:105F600007070003000000070707070707070707E1
:105F700007070707070000030303030000070707DD
:105F800007070707070707070707070700000300BA
:105F90000707070707070707070707070007070798
:105FA0000707070707070707070707070000030397
:105FB0000303030303030000070707070707070797
:105FC000070707070707070000070707070700007D
:105FD0000707070707070707070707070707070751
:105FE0000700000000030303030303030303030389
:105FF0000300000707070707070707070707070743
:10600000070707070707070000070707070707072E
:106010000707070707070707000003030303030336
:106020000303030303030303030300000000070744
:1060300007070707070707070707070707070707F0
:1060400003000707070707070707070707070707EB
:106050000700000303030303030303030303030312
:1060600003030300000000070707070707070707E8
:1060700007070707070707070703000707070707BB
:1060800007070707070707070000030303030303C6
:1060900003030303030303030303000007070707C6
:1060A000070707070707070707070000070707078E
:1060B000070003030707070707070707070707077F
:1060C00000030303030303030303030303030303A3
:1060D0000300000707070707070707070707070762
:1060E0000700000007070707070703030300070768
:1060F0000707070707000000000303030303030368
:106100000303030303030300000007070707070750
:106110000707070707070000000003000707070736
:106120000707000303030007070707070700030328
:106130000303030303030303030303030303000035
:1061400007070707070707070707070707070003EA
:106150000303030300070707070707000300030300
:1061600000070707070707000303030303030303ED
:1061700003030303030000070707070707070707D1
:1061800007070707000000030303030300070707CF
:1061900007070000030300030300070707070707BB
:1061A00007000303030303030303030300000707BC
:1061B0000707070707070707070700000003030390
:1061C000030303000007070707070003030300009A
:1061D0000303030000070707070707000003030383
:1061E000030300000007070707070707070707075C
:1061F0000700000303030303030303000707070764
:106200000707070003030300000303030000070759
:106210000707070700000303030303000000070745
:10622000070707070707070707070000030303031C
:106230000303030300070707070707070003030318
:106240000000000303030300070707070707070011
:1062500003000000070707070707070707070707E7
:1062600007000003030303030303030300070707F7
:1062700007070707000303030000000000030303F0
:1062800003000707070707070700070707070707B0
:1062900007070707070707070000030303030303B4
:1062A00003030303000707070707070700030303A8
:1062B00003000000000000030303030007070707B3
:1062C000070707070707070707070707070700006C
:1062D000000303030303030303030300000707078B
:1062E0000707070700030303000000000000000089
:1062F000000003030300070707070707070707074F
:10630000070707070700000303030303030303034F
:106310000300000007070707070707070003030339
:106320000000000000000000000000000303030064
:10633000070707070707070707070700000003030A
:106340000303030300000000000007070707070717
:106350000707070700030303000000000000000018
:1063600000000000000003030300070707070707FA
:1063700007070707070707000000000000070707D7
:1063800007070707070707070707070000030303B7
:1063900000000000000000000000000000000000FD
:1063A000030303000000070707070707070707079E
:1063B000070707070707070707070707070707076D
:1063C00007070000030303030000000000000000B3
:1063D00000000000000000000000030303030300AE
:1063E0000007070707070707070707070707070744
:1063F000070707070707070707000003030303034F
:10640000000000000000000000000000000000008C
:106410000000000303030303000007070707070743
:1064200007070707070707070707070707070707FC
:10643000070700000303030303000000000000003F
:106440000000000000000000000000000003030343
:1064500003030300000707070707070707070707E6
:1064600007070707070707070700000303030303DE
:106470000300000000000000000000000000000019
:1064800000000000000000000003030303030000FD
:1064900000000007070707070707070707000000B6
:1064A00000000303030303030000000000000000DA
:1064B00000000000000000000000000000000000DC
:1064C00000000000030303030303030300000000B4
:1064D00000000000000003030303030303030300A1
:1064E00000000000000000000000000000000000AC
:1064F0000000000000000000000000000000000399
:10650000030303030303030303030303030303035B
:106510000303030303030000000000000000000069
:10652000000000000000000000000000000000006B
:10653000000000000000000000000000030303034F
:10654000030303030303030303030300000000002A
:10655000000000000000000000000000000000003B
:10656000000000000000000000000000000000002B
:10657000000000000000000000000000000000001B
:10658000000000000000000000000000000000000B
:106EC00000000000000000000000070000000007B4
:106ED00000000000000000000000000000000000B2
:106EE00000000000000000000000000000000000A2
:106EF0000000000000000000000000000000000092
:106F00000000070000000707070707000000000057
:106F10000000000000000000000000000000000071
:106F20000000000000000000000000000000000061
:106F30000000000000000000000007000007000043
:106F40000000000000000707000000000000000033
:106F50000000000000000000000000000000000031
:106F60000000000000000000000000000000000021
:106F700000000000000700000707000700070000EE
:106F8000070707070707070707070707000007079F
:106F900007070707070707070700000000000000B2
:106FA00000000000000707070707070700070700A2
:106FB00000000707070707070700000000000000A0
:106FC000000007070707070707070700000000077B
:106FD0000707070700000000000000000007070780
:106FE0000707070707000707000000070707070054
:106FF0000000000000000000000000000000000091
:10700000070707070707070000070707070700002C
:10701000000000000000070707070707070707072A
:107020000700000007000000000000000000000052
:107030000000000000000000000007070707070726
:107040000000000707070700000000000000070716
:1070500007070707070707070707000000070000E3
:107060000000000000000000000000000000000020
:1070700007000000070707070707000007070707C3
:1070800007000000000000070707070707070707BA
:1070900000070700000007000000000000000007D4
:1070A00007070700000000000000000000070700BD
:1070B0000707070700000707070700000000000098
:1070C000070707070707070707000707070000006C
:1070D000070707070000000007000000000000008D
:1070E0000000000000000707000007070700000776
:1070F0000707070000000000070707070700000751
:107100000707070707070000000007070707000039
:107110000000000000000000000000000000000768
:107120000707000007070000070707070000000027
:1071300000070707070000070707070007070707FB
:10714000000000000707070700000007070700000E
:107150000000000000000707000707000007070005
:1071600000070707070000000007000707000007E7
:1071700007070707000707070707000007070707B4
:1071800007000000070707000000000000000000E3
:1071900007000707070000070000070707070000B0
:1071A00000000700070000070707070700000707A0
:1071B00007070000000707000000070000000000AC
:1071C00000000000000000070000000707070000A3
:1071D0000707000707070700000007070007000070
:1071E0000707070700000000070707000000070760
:1071F000000007070700000000000000000000007A
:107200000007070007070707000007000707070731
:107210000000000707000700070707070700000036
:10722000000707070707070707000707070700000A
:107230000007000000000000000007070007070724
:107240000700000700070707070000000007000706
:1072500000000707070700000000070707070707E8
:1072600007070007070707000000070700000000E6
:1072700000000000000000070707000007000707E4
:1072800007070000000007000700000707070707BF
:1072900000000007070707070707000000070707A8
:1072A00000000000070000000000000000000000D7
:1072B0000707070007070007070707000000000788
:1072C0000007000707070707070000000707070771
:1072D0000707070000000707070700000007000076
:1072E000000000000707000000070007070707006D
:1072F0000707070700000000070707000007070748
:10730000070700000007070707070700000000073E
:10731000070707000000070000000000000707073C
:107320000000000007070707000707070700000025
:10733000000000070000070707070707000007070E
:107340000707070000000000000707070000000013
:1073500000000000000007070700000700070707FC
:1073600007000707070700000000070707000007DE
:1073700000070707070000000707070000000707CE
:1073800000000007070000000000000000000000EF
:1073900007070000070007070707000707070700A0
:1073A00000000007070700000000000700000000C1
:1073B00000000000000000070707000000070000B1
:1073C00000000000000000000000000000070007AF
:1073D0000707070007070700000000000707070767
:1073E0000707070707070700000000070700070750
:1073F000070707070000000000000700000000006A
:10740000000707000000070007000707000707073D
:107410000000000700070707070707070707070718
:10742000000000070707070707070707070000070F
:107430000000000700000000000007070700000030
:10744000000707070000070700000000070000070B
:1074500007070707070707070700000707070707CA
:1074600007070707070700070700000007000000DD
:1074700000000007070700000700070707000007D4
:1074800007070000000700070007070707070707AF
:10749000070700000707070707070707070707078A
:1074A00007070000070700000000000007070700AB
:1074B00000070007070700000707000000000000A2
:1074C000000007070707070707070707070707075A
:1074D0000707070707070707070707000007070051
:1074E000000000000007070700000700070707006B
:1074F000000707000000000000000007070707075B
:107500000707070707070707070707070707000019
:107510000707070700000000000000000000070741
:107520000700000000070007000007070000000038
:1075300000000700070707070707070707070707F0
:1075400007070707070707000007070700000000F5
:107550000000000000000000000000000707070016
:1075600000000707000000000000000700070707F1
:10757000070707070707070707070707070707079B
:1075800000000707070000000707000000000000D8
:1075900000000000000707070000000707000000C8
:1075A0000000000000000707070707070707070795
:1075B0000707070707070707070000070707000077
:1075C000000707000000000000000000000007079F
:1075D0000000000007000000000000000700000796
:1075E000070700000007070700000707070707074E
:1075F0000000000007070700000007070000000068
:107600000707070707000707070000000007070034
:107610000000000000070000000007070707070040
:107620000007000000070707000000070700000030
:107630000000070700000000000707070707000712
:10764000070000000007070000000000000007001E
:1076500000000707070707070000070000070707E4
:1076600007070000000000000000000707000000FE
:1076700000070707070707000707070000000707BD
:1076800000000000000000070000000007070707D7
:1076900000000000000007070707070000000000C7
:1076A0000700000707070000000007070707070794
:1076B00000070700000000070700000000000000AE
:1076C0000700000000070707070000000000070789
:1076D0000707070700000000070700000000070079
:1076E000000000070707070707000707000000075B
:1076F0000707000000000000000700000007070760
:107700000707000007000007070707070700000733
:107710000707070000000000000000070707070731
:10772000070007070700000007070000000000002F
:107730000000070000000707070707000007000018
:1077400007070707070707000707070000000000F3
:10775000000000000000000007070007070000000D
:1077600007070700000000000007000700000007EF
:1077700007070700000000000707070707070707BC
:1077800000070707000007070700000000000000CF
:1077900000000000070700000007070000000000CD
:1077A00000000700000000000707070700000000B6
:1077B000000707070707070707000707000000077C
:1077C000070700000007070000000000000700078F
:1077D000000007070000000000000007000007008D
:1077E0000000070707000000000000000707070768
:1077F000070700070700000007070700000007074A
:10780000070707000000000007000707000000004E
:10781000000000000000000700000007070700004C
:107820000000000000000707070707000707000027
:107830000007070700000007070707070000000010
:10784000000000070000000000000000000007002A
:1078500000070000000707070000000007070000FE
:1078600000070707070700000007070700000007D9
:1078700007070707000000070000000707000000D7
:1078800000000000000000070000070000000707DC
:1078900007000000000707000000070707070000B7
:1078A00000000707070000070707070700000000A0
:1078B00007070000070000000000000000000000B3
:1078C0000707000000000007070700000000070787
:1078D0000700000707070700000007070700000070
:1078E0000707070707000000070707000707000052
:1078F000000000000000000000070700000000007A
:10790000000707070000000007070000000707073F
:10791000000000070700000000070707070000003D
:107920000007070000070000000000000000000042
:107930000000070707000700000000070707000016
:10794000000707000000070707000000070000000D
:10795000000000000700000000070700000007000B
:1079600000000000000000000000000707070007FB
:1079700000000700070707070000070700000007CF
:1079800007070000000000000000000000000000E9
:1079900000070707000007000000000000000000CB
:1079A000000000000707070700070000070007079F
:1079B000070007070700000007070000000000009D
:1079C000000000000700000000070707070000078D
:1079D0000000000000000000000000000007070792
:1079E000070007070000070707070707070700004A
:1079F000070707000007070700000000070700004F
:107A00000007070707070707000000000000000045
:107A1000000000000000070707070000070700003C
:107A20000707070700070000000707070000070710
:107A30000700000007070000000707070707070700
:107A40000700000000000000000000000000000728
:107A500007070707000007000707070700000000E7
:107A600000000707000000070707000007070000E5
:107A700000070707070707070000000000000000D5
:107A800000000000000000000007070707070000D3
:107A900007070707070000000000070700000007AE
:107AA0000707000000000000070707070707070790
:107AB00000000000000000000000000000000000C6
:107AC000000007070707070707070707070707005B
:107AD000000000070700000007070000000000008A
:107AE0000707070707070707070707000000000049
:107AF000000000000000000000000000070707076A
:107B00000707070707070707000000070000000036
:107B1000070700000000000007070707070707071F
:107B20000707070000000000000000000000000040
:107B300000000000000007070707070707070707FF
:107B40000700000700000000000000000000000720
:107B500007070707070707070707070700000000D1
:107B60000000000000000000000000000000000015
:107B700007070707070707070707000007000700B1
:107B800000000000000000070707070707070707B6
:107B900007070707000000000000000000000000C9
:107BA00000000000000000000000070707070707AB
:107BB0000707070000000707070000000007070786
:107BC0000707070707070707070707070000000061
:107BD00000000000000000000000000000000000A5
:107BE000000000000000070707070707070000075D
:107BF0000707070000070707070707070707070723
:107C00000707070700000000000000000000000058
:107C10000000000000000000000000000000000064
:107C2000000707070000000007070707070007070E
:107C300007070707070707070707070700000000F0
:107C40000000000000000000000000000000000034
:107C50000000000000000000000000000700070016
:107C600000000707070700000707070707070707C0
:107C700007070000000000000000000000000000F6
:107C800000000000000000000000000000000000F4
:107C900000000000000000000707070000000000CF
:107CA00000000707000707000000000000000000B8
:107CB00000000000000000000000000000000000C4
:107CC00000000000000000000000000000000000B4
:107CD000000707070700000000070707000007006C
:107CE0000000000000000000000000000000000094
:107CF0000000000000000000000000000000000084
:107D00000000000000000000000700000707070750
:107D10000707070000000700000000000000000047
:107D20000000000000000000000000000000000053
:107D30000000000000000000000000000000000043
:107D40000000000707070000000000000000070017
:107D50000000000000000000000000000000000023
:107D60000000000000000000000000000000000013
:107D700000000000000000000000000000070707EE
:107D800000000000070707000000000000000000DE
:107D900000000000000000000000000000000000E3
:107DA00000000000000000000000000000000000D3
:107DB0000000000000000000070707070707000099
:107DC00000000000000000000000000000000000B3
:107DD00000000000000000000000000000000000A3
:107DE0000000000000000000000000000000000093
:107DF0000000000000000000000000000000000083
:10801000000000000000000011241FBECFEFDFE3CE
:10802000DEBFCDBF00E00CBF1CE2A0E0B0E2E8E2A2
:10803000FFE800E00BBF02C007900D92A234B10729
:10804000D9F71DE2A2E4BCE201C01D92A73AB10734
:10805000E1F70E94DC450C9492470C940000BC01AF
:1080600048E050E0E1E0F0E02FEFCF01042E02C045
:10807000880F991F0A94E2F786239723181619068A
:10808000DCF4209344062093440620934406209376
:1080900044062093440620934406209344062093EC
:1080A00044062093440620934406209344062093DC
:1080B0004406209344061AC02093440620934406A5
:1080C00020934406209344062093440610924406CD
:1080D00010924406109244061092440610924406F0
:1080E00010924406109244061092440610924406E0
:1080F00010924406109244061092440610924406D0
:1081000010924406109244061092440610924406BF
:10811000109244061092440610924406415050407A
:1081200009F0A3CF0895EF92FF920F931F938C0154
:10813000CB017A010E942F40C8010E942F40C70145
:108140000E942F401F910F91FF90EF90089580E0C3
:1081500090E0FC01ED5BF34D10821182FC01EB54C9
:10816000F34D10821182FC01E95DF24D1082118203
:1081700002968237910569F70895CF93DF93C0E0A7
:10818000D0E0DE01AD5BB34DFE01EB54F34D6081F9
:108190007181FE01E95DF24D408151818D919C918B
:1081A0000E9493402296C237D10559F7DF91CF91B3
:1081B00008958FE080935000E0E4F0E0118288E1C0
:1081C000E0E5F0E08583809150008061809350006D
:1081D0008091510084FFFCCF88ED84BF84E08093C0
:1081E00040000895E82FFF27E7FDF095E531F10500
:1081F00008F02AC2EC50FF4F772767FD7095EE0F0D
:10820000FF1F0590F491E02D19941616170614F02F
:1082100061E070E06A33710514F069E370E0FB011E
:108220003197EE0FFF1FDF01AD5BB34D1D921C9226
:1082300015C01616170614F061E070E06A33710578
:1082400014F069E370E0FB013197EE0FFF1FDF01CF
:10825000AD5BB34D8FEF90E08D939C93DF01AB54FA
:10826000B34D1D921C9215C11616170614F061E04D
:1082700070E06A33710514F069E370E0FB01319737
:10828000EE0FFF1FDF01AD5BB34D1D921C92FAC0D4
:108290001616170614F061E070E06A33710514F0E9
:1082A00069E370E0FB013197EE0FFF1FDF01AD5B6B
:1082B000B34D1D921C9222C11616170614F061E0F0
:1082C00070E06A33710514F069E370E0FB013197E7
:1082D000EE0FFF1FDF01AD5BB34D8FEF90E08D938D
:1082E0009C93DF01AB54B34DD2C01616170614F0A1
:1082F00061E070E06A33710514F069E370E0FB013E
:108300003197EE0FFF1FDF01AD5BB34D1D921C9245
:10831000DF01AB54B34D8FEF90E04EC11616170638
:1083200014F061E070E06A33710514F069E370E005
:10833000FB013197EE0FFF1FDF01AD5BB34D8FEFF8
:1083400090E08D939C93DF01AB54B34D1D921C9232
:1083500035C11616170614F061E070E06A33710536
:1083600014F069E370E0FB013197EE0FFF1FDF01AE
:10837000AD5BB34D8FEF90E04FC01616170614F0AB
:1083800061E070E06A33710514F069E370E0FB01AD
:108390003197EE0FFF1FDF01AD5BB34D80E890E03A
:1083A0005BCF1616170614F061E070E06A337105B2
:1083B00014F069E370E0FB013197EE0FFF1FDF015E
:1083C000AD5BB34D1D921C9242C01616170614F0F9
:1083D00061E070E06A33710514F069E370E0FB015D
:1083E0003197EE0FFF1FDF01AD5BB34D1D921C9265
:1083F0006AC01616170614F061E070E06A33710562
:1084000014F069E370E0FB013197EE0FFF1FDF010D
:10841000AD5BB34D80E890E08D939C93DF01AB544E
:10842000B34DCAC01616170614F061E070E06A3347
:10843000710514F069E370E0FB013197EE0FFF1F47
:10844000DF01AD5BB34D8FEF90E08D939C93DF0127
:10845000AB54B34D80E890E01AC01616170614F01E
:1084600061E070E06A33710514F069E370E0FB01CC
:108470003197EE0FFF1FDF01AD5BB34D80E890E059
:108480008D939C93DF01AB54B34D8FEF90E08D93B0
:108490009C93E95DF24D108211820895161617061D
:1084A00014F061E070E06A33710514F069E370E084
:1084B000FB013197EE0FFF1FDF01AD5BB34D8FEF77
:1084C00090E08D939C93DF01AB54B34D1D921C92B1
:1084D00054C01616170614F061E070E06A33710597
:1084E00014F069E370E0FB013197EE0FFF1FDF012D
:1084F000AD5BB34D80E890E08D939C93DF01AB546E
:10850000B34D1D921C921AC01616170614F061E0A6
:1085100070E06A33710514F069E370E0FB01319794
:10852000EE0FFF1FDF01AD5BB34D1D921C92DF010B
:10853000AB54B34D80E890E08D939C93E95DF24D90
:108540008FEF90E03DC01616170614F061E070E062
:108550006A33710514F069E370E0FB013197EE0FA7
:10856000FF1FDF01AD5BB34D1D921C92DF01AB54C9
:10857000B34D8FEF90E08D939C93E95DF24D80E8D1
:1085800090E01EC01616170614F061E070E06A3322
:10859000710514F069E370E0FB013197EE0FFF1FE6
:1085A000DF01AD5BB34D8FEF90E08D939C93DF01C6
:1085B000AB54B34D80E490E08D939C93E95DF24D14
:1085C0008083918308951616170614F061E070E019
:1085D0006A33710514F069E370E0FB013197EE0F27
:1085E000FF1FDF01AD5BB34D20E430E02D933C93E2
:1085F000DF01AB54B34D8FEF90E08D939C93E95D19
:10860000F24D2083318308951616170614F061E0A9
:1086100070E06A33710514F069E370E0FB01319793
:10862000EE0FFF1FDF01AD5BB34D80E490E08D9353
:108630009C93DF01AB54B34D8D939C93E95DF24D58
:108640008FEF90E08083918308954FEF50E0481BB7
:10865000590B45355105C4F49A01220F331F240FDD
:10866000351F88279927821B930B81509F4F80933A
:10867000992D90939A2D10929B2D10929C2D2093C2
:108680009D2D30939E2D36C04A3A5105D4F49A015F
:10869000255530401092992D10929A2DC901880FBE
:1086A000991F820F931F80939B2D90939C2D9095E3
:1086B00081959F4F81509F4F80939D2D90939E2D2C
:1086C00019C09A012A5A3040C901880F991F820F98
:1086D000931F8093992D90939A2D909581959F4FFC
:1086E00081509F4F80939B2D90939C2D10929D2D98
:1086F00010929E2D89E99DE208958FEF80934006A8
:108700001092800681E090E00E945F478093A52D43
:108710008150853018F081E08093A52D0E94D940CA
:1087200008951F939C018091012090E08217930788
:1087300058F51091A52D812F8450823060F482E08D
:1087400090E00E945F47813031F082E090E061E08C
:108750000E946F4745C0812F8F5F8093A52D863083
:1087600010F4882319F481E08093A52D81E090E036
:108770006091A52D0E946F4782E090E061E00E9429
:108780006F478091A52D20C08091002090E0821736
:10879000930710F080E025C082E090E00E945F47E0
:1087A0008F5F8093A62D893010F4882319F481E01F
:1087B0008093A62D82E090E06091A62D0E946F47E5
:1087C00081E090E00E945F47833051F49FB7F894B6
:1087D00088ED84BF81E0E8E7F0E081839FBF01C0BE
:1087E00081E01F9108951092422C8091880685FDAA
:1087F00003C081E08093422C2091422C213049F427
:1088000080919F2D9091A02D019680939F2D909304
:10881000A02D8091A12D821751F4222341F4809143
:108820009F2D9091A02D0E949143282F01C020E000
:108830009091422C992341F48091A12D882321F419
:1088400010929F2D1092A02D9093A12D822F08950C
:10885000AF92BF92CF92DF92EF92FF920F931F934E
:10886000CF93DF936C017B018A01C0E0D0E090EBF5
:10887000A92E94E0B92EFE011C161D0614F0E1E0AD
:10888000F0E03197EE0FFF1FDF01AD5BB34DCD92EE
:10889000DC92DF01AB54B34DED92FC92E95DF24DF9
:1088A000008311830E94BD408AEF90E0F50131976B
:1088B000F1F70197D9F70E94F343813021F0219617
:1088C000C933D105C1F6DF91CF911F910F91FF9070
:1088D000EF90DF90CF90BF90AF900895EF92FF920E
:1088E0000F931F93CF93DF937C018B010E94A740CE
:1088F0001016110654F4E701FE0184919E012E1911
:10890000622F0E94F2402197F7CFDF91CF911F9104
:108910000F91FF90EF900895AF92BF92CF92DF92A8
:10892000EF92FF921F93CF93DF930E94A74048E3FB
:10893000E42EF12C38E7C32E3CE0D32E28E5A22EFE
:1089400022E0B22E22C08881612F0E94F24021973E
:1089500011501130C1F70E94BD40C70164E170E0C1
:108960000E943847892B21F40E94F343813091F013
:10897000C5010197F1F70894E108F10888EC9FEF31
:10898000C80ED91EE114F10429F0E601CE5FDF4DD7
:1089900019E3D9CFDF91CF911F91FF90EF90DF9036
:1089A000CF90BF90AF9008952F923F924F925F92D9
:1089B0006F927F928F929F92AF92BF92CF92DF92EF
:1089C000EF92FF920F931F93CF93DF932C013B0104
:1089D0004A015901CC24DD2410EB212E14E0312E64
:1089E00070C08A33910519F4E9E3F0E006C0FC0198
:1089F0001816190614F0E1E0F0E03197EE0FFF1FB2
:108A0000DF01AD5BB34D4D925C92DF01AB54B34DD2
:108A10006D927C92E95DF24D808291822D5F3F4F95
:108A2000039629333105E9F60E94BD40C0E0D0E04D
:108A30000DC08AEF90E0F1013197F1F70197D9F776
:108A40000E94F343813009F43FC02196CA15DB052B
:108A500084F380E090E00A33110519F4E9E3F0E0D3
:108A600006C0F8011016110614F0E1E0F0E03197AD
:108A7000EE0FFF1FDF01AD5BB34D1D921C92DF01B6
:108A8000AB54B34D1D921C92E95DF24D10821182E0
:108A900003960D5F1F4F89339105E9F60894E11C99
:108AA000F11C83E0E816F10429F08701C70120E0FA
:108AB00030E097CF0894C11CD11C8AE0C816D104BD
:108AC00019F0EE24FF24F1CFDF91CF911F910F9188
:108AD000FF90EF90DF90CF90BF90AF909F908F90DE
:108AE0007F906F905F904F903F902F900895AF923E
:108AF000BF92CF92DF92EF92FF920F931F93CF938B
:108B0000DF936C01EE24FF2470EBA72E74E0B72EE8
:108B100045C0C8018E0D9F1D90700E942543EC0139
:108B20002A813B814C815D81F8011016110614F0F9
:108B3000E1E0F0E03197EE0FFF1FDF01AD5BB34DD9
:108B4000888199818D939C93DF01AB54B34D2D9314
:108B50003C93E95DF24D408351830F5F1F4F093312
:108B60001105B9F60E94BD40C0E0D0E00CC08AEF0C
:108B700090E0F5013197F1F70197D9F70E94F3439F
:108B8000813079F02196CC15DD058CF30894E11C39
:108B9000F11C80E0E81681E0F80619F000E010E032
:108BA000B8CFDF91CF911F910F91FF90EF90DF90A1
:108BB000CF90BF90AF900895CF92DF92EF92FF9247
:108BC0000F931F93CF93DF930E947D43C0EBD4E0BC
:108BD00012E0D12EBFE0CB2EA0E4EA2EF12C0EE164
:108BE00081E090E00E945F47833009F496C08430B2
:108BF00030F4813059F0823009F030C11CC084302B
:108C000009F4CCC0853009F029C1F8C010E082E039
:108C100090E00E945F47612F0E94F2401F5F1A336D
:108C2000B1F70E94BD408AEF90E0FE013197F1F765
:108C30000197D9F71AC182E090E00E945F47843023
:108C400021F1853038F4823081F0833098F481301E
:108C500039F606C0853001F1893008F0C1CF57C020
:108C600085E090E00E947745BBCF8FEF90E060E019
:108C700070E004C080E090E06FEF70E040E050E012
:108C800023E030E00E94D444ABCF80E090E060E08D
:108C900070E04FEF50E0F4CF8FEF90E060E070E0D5
